:1000000019C02BC02AC029C028C027C026C025C0BF
:1000100024C023C022C021C020C01FC01EC01DC0DC
:100020001CC01BC01AC019C018C017C016C015C00C
:1000300014C013C011241FBECFEFD2E0DEBFCDBF6E
:1000400011E0A0E0B1E0E2E0F8E002C005900D921E
:10005000A83BB107D9F7E1D2D2C3D2CF61E080E0AB
:1000600018D180E191E0A9D080E188B92FEF81E13A
:100070009AE7215080409040E1F700C0000018B896
:100080002FEF87EA91E6215080409040E1F700C0D1
:10009000000061E080E0FDD081E291E08ED080E25E
:1000A00088B92FEF81E19AE7215080409040E1F735
:1000B00000C0000018B808958AB1807F8AB95E9A9E
:1000C0005D9800C000C05C9A00C000C089B18295F4
:1000D000807F00C000C05C9892E09A95F1F700C064
:1000E0005C9A00C000C099B100C000C05C9892E06A
:1000F0009A95F1F700C087FDE6CF5E988AB18F60D0
:100100008AB90895282F22952F708F70611102C02F
:100110005D9801C05D9A00C000C05C9A9BB1907F61
:10012000922B9BB992E09A95F1F700C05C9892E00F
:100130009A95F1F700C05C9A9BB1907F982B9BB980
:1001400082E08A95F1F700C05C9892E09A95F1F709
:1001500000C0B2CFCF93DF931F92CDB7DEB7EFE5EC
:10016000FAEE3197F1F700C000009AB19F609AB99A
:10017000549A559A569A9BB1907F9BB95C985E9819
:100180005D9800C000005C9A599AF2E0FA95F1F788
:1001900000C05C9892E09A95F1F700C089838CDFEB
:1001A00060E089818C60AEDF60E088E2ABDF60E018
:1001B00080E80F90DF91CF91A5CF0F931F93CF933E
:1001C000DF93EC0116C0853279F48E010F5F1F4F6B
:1001D0008981805361E0883008F404C085E292DFB1
:1001E00061E089818FDF03C061E08CDF8E01E8016F
:1001F000219688818111E7CFDF91CF911F910F91D7
:1002000008950F931F93CF93DF9300D000D01F92D8
:10021000CDB7DEB79B01FE01319645E0DF011D92AF
:100220004A95E9F7FE0136960AE010E004C0B801ED
:10023000BFD28293CB010097D1F72F3FBFEF3B078F
:1002400051F4FE013196CF018F01081B190B21914A
:100250002223D1F311C005E010E0021B130B0CC0E8
:10026000E1E0F0E0EC0FFD1FE00FF11F808161E0A5
:10027000805D48DF0F5F1F4F053011058CF30F9035
:100280000F900F900F900F90DF91CF911F910F91D2
:100290000895843170F4623031F0633031F06130B0
:1002A00029F4806403C08C5E01C08C5A60E08068D1
:1002B00029CF0895CF93C42FECDF9C2F92959F7088
:1002C000292F30E0892F2A30310514F4805D01C0D8
:1002D000895C61E017DFF0DE8C2F8F70282F30E013
:1002E0002A30310514F4805D01C0895C61E00ADFC9
:1002F000CF91E2CECF93DF931F92CDB7DEB72A988E
:10030000880F8E77698383D16981862F80D12A9A5D
:100310000F90DF91CF9108952A9890E0880F991F50
:100320008E779927806873D180E071D12A9A0895D9
:100330006FE081E0DFCFFCDF6DE88AE2DBDF6EE3B8
:100340008BE2D8DF6EE18CE2D5DF60E08DE2D2DFB8
:1003500060E485E1CFDF6DE381E1CCDF84E1DCDFC8
:10036000982F937021F4682F636084E1C3CF0895C0
:100370002F923F924F925F927F928F929F92AF9275
:10038000BF92CF92DF92EF92FF920F931F93CF9382
:10039000DF9300D01F92CDB7DEB7882EF62E242E25
:1003A000722E932E1B830A838C50833050F490E07E
:1003B000FC01E65FFE4F1081FC01E35FFE4F008110
:1003C00002C000E010E084E07983A6DF682F6F7739
:1003D00084E090DF8AE0A0DF682F60688AE08ADF2F
:1003E00060E081E087DFAF2C7981B72EC12CD12C62
:1003F0007601312C412C512C0AC0F50161915F012D
:1004000089E078DFFFEFCF1ADF0AEF0AFF0AC21494
:10041000D304E404F50488F3682D81E06BDF8CE0FD
:10042000881206C08DE078DF682F60688DE062DF9B
:1004300070EDC72E77E0D72EE12CF12C84E06CDF35
:10044000B82EE1E0CE1AD108E108F10821F080FDD4
:1004500002C0802399F38DE05FDF682F6F778DE016
:1004600049DFCD28CE28CF2811F413E051C086E013
:1004700053DF8B71D1F711701B2111F411E001C012
:1004800012E0FCE08F1244C08AE046DF082F8CE0C7
:1004900043DF8770202F30E0A90151F0415051090E
:1004A00063E0440F551F6A95E1F7480F511D05C0E1
:1004B00033E0440F551F3A95E1F7662757FD6095E5
:1004C000762FEA81FB81408351836283738300230B
:1004D00019F0013118F403C001E001C000E1472C1C
:1004E000592CC12CD12C7601802E912CA12CB12C11
:1004F0000AC089E011DFF20181932F01FFEFCF1ACB
:10050000DF0AEF0AFF0AC814D904EA04FB0488F3DF
:10051000812F0F900F900F90DF91CF911F910F912E
:10052000FF90EF90DF90CF90BF90AF909F908F9013
:100530007F905F904F903F902F900895EF92FF92A1
:100540000F931F93CF93DF9300D000D0CDB7DEB7CA
:10055000182F7B0167E08DE0CDDEF70110838E015F
:100560000F5F1F4F970141E0B7018CE001DF813041
:1005700051F449815A816B817C814031510561057B
:10058000710509F401C083E00F900F900F900F9058
:10059000DF91CF911F910F91FF90EF900895EF920F
:1005A000FF920F931F93CF93DF9300D000D0CDB76E
:1005B000DEB77C0160E08DE09DDE83E9F70180839A
:1005C00080E281838E010F5F1F4F970142E0B701E8
:1005D0008CE0CEDE813059F4F70124E090E03191D7
:1005E00093272150E1F7F7012481921383E00F90C4
:1005F0000F900F900F90DF91CF911F910F91FF906F
:10060000EF9008958CE284B981E58CBD08958EBD8C
:100610000DB407FEFDCF8EB50895CF93DF93CDB710
:10062000DEB76A970FB6F894DEBF0FBECDBF85E088
:10063000E0E0F1E0DE01569601900D928A95E1F737
:1006400085E0E5E0F1E0DE01519601900D928A959A
:10065000E1F72FE788E391E0215080409040E1F7F7
:1006600000C0000081E076DD60E082E012DE82E31F
:1006700091E0A3DD61E085E00CDE8EE391E09DDD9D
:1006800080E387B9BFDF57DEAFEFBEE924E2A150B8
:10069000B0402040E1F700C0000060E081E032DDC2
:1006A00087E33ADE823931F460E082E0F2DD84E40F
:1006B00091E008C0805960E0823058F482E0E9DDC2
:1006C0008CE591E07ADD61E084E0E3DD83E591E0B3
:1006D00004C080E0DEDD8BE691E06FDD8FEF9EE908
:1006E000A4E281509040A040E1F700C0000060E02B
:1006F00081E008DD8E010A5E1F4F7E01BBE1EB0E3B
:10070000F11C60E081E0FEDC60E081E0C2DD8BE7AF
:1007100091E053DDBE016F5F7F4F82E50FDF8130D7
:1007200081F7CE0101963BDF8130D9F4F801AE01AB
:100730004F5F5F4FCA013191DC012D91CD01321322
:1007400004C0EE15FF05B9F715C0FE017196919131
:10075000DA018D91AD01981321C0E017F107B9F7C7
:1007600012C060E081E0CEDC60E085E092DD8AE8E6
:1007700091E01CC060E081E0C5DC60E083E089DDE1
:1007800080E991E008C060E081E0BCDC60E083E0EB
:1007900080DD8BE991E011DD61DCB3CF60E081E0C9
:1007A000B1DC60E080E075DD87EA91E006DDA9CF8D
:1007B00097FB072E16F4009406D077FD08D00BD0D7
:1007C00007FC05D03EF4909581959F4F0895709554
:1007D00061957F4F0895AA1BBB1B51E107C0AA1F5B
:1007E000BB1FA617B70710F0A61BB70B881F991FD2
:1007F0005A95A9F780959095BC01CD010895F8947C
:02080000FFCF28
:100802003D21E4D32B0E65E2139A770012300010DB
:100812004F70656E696E672047617465202E2E2EBB
:1008220000436C6F73696E672047617465202E2EDA
:100832002E00524649442052656164657200312E91
:10084200302E30004D494641524520524335323216
:100852007632004465746563746564004D494641AF
:1008620052452052433532327631004E6F20726546
:100872006164657220666F756E640053686F7720DD
:10088200596F75722043617264004572726F720013
:1008920048656C6C6F20426C75650048656C6C6FC6
:1008A200205768697465004E6F74205265636F67E4
:0808B2006E69736564202100EA
:00000001FF
