:1000000019C02BC02AC029C028C027C026C025C0BF
:1000100024C023C022C021C020C01FC01EC01DC0DC
:100020001CC01BC01AC019C018C017C016C015C00C
:1000300014C013C011241FBECFEFD2E0DEBFCDBF6E
:1000400011E0A0E0B1E0E8E2F8E002C005900D9216
:10005000A83BB107D9F7F4D2E5C3D2CF61E080E085
:100060002BD180E191E0BCD080E188B92FEF84E30F
:100070009CE0215080409040E1F700C0000018B89B
:100080002FEF87EA91E6215080409040E1F700C0D1
:10009000000061E080E010D181E291E0A1D080E237
:1000A00088B92FEF84E39CE0215080409040E1F735
:1000B00000C0000018B860E081E02FD060E081E06F
:1000C000FBD082E391E08CC08AB187788AB9599AD3
:1000D000589800C000C05A9A00C000C089B18695E7
:1000E000869586958295807F00C000C05A9892E0E0
:1000F0009A95F1F700C05A9A00C000C099B100C0AB
:1001000000C05A9892E09A95F1F700C087FDE3CFBE
:1001100059988AB188678AB90895282F22952F7037
:100120008F70611102C0589801C0589A00C000C079
:100130005A9A9BB148E0249F900111249778922B02
:100140009BB992E09A95F1F700C05A9832E03A953F
:10015000F1F700C05A9A2BB148E0849FC0011124E6
:100160002778282B2BB982E08A95F1F700C05A989E
:1001700092E09A95F1F700C0A7CFCF93DF931F923B
:10018000CDB7DEB7EFE5FAEE3197F1F700C000002A
:100190009AB198679AB9529A509A519A9BB19778A6
:1001A0009BB95A985998589800C000005A9A5C9A7E
:1001B000F2E0FA95F1F700C05A9892E09A95F1F7BB
:1001C00000C0898381DF60E089818C60A6DF60E008
:1001D00088E2A3DF60E080E80F90DF91CF919DCFB0
:1001E0000F931F93CF93DF93EC0116C0853279F400
:1001F0008E010F5F1F4F8981805361E0883008F4C2
:1002000004C085E28ADF61E0898187DF03C061E0A5
:1002100084DF8E01E801219688818111E7CFDF918B
:10022000CF911F910F9108950F931F93CF93DF9359
:1002300000D000D01F92CDB7DEB79B01FE013196F2
:1002400045E0DF011D924A95E9F7FE0136960AE086
:1002500010E004C0B801BFD28293CB010097D1F760
:100260002F3FBFEF3B0751F4FE013196CF018F01C5
:10027000081B190B21912223D1F311C005E010E0D6
:10028000021B130B0CC0E1E0F0E0EC0FFD1FE00FD0
:10029000F11F808161E0805D40DF0F5F1F4F0530FF
:1002A00011058CF30F900F900F900F900F90DF912E
:1002B000CF911F910F910895843170F4623031F025
:1002C000633031F0613029F4806403C08C5E01C07A
:1002D0008C5A60E0806821CF0895CF93C42FECDF63
:1002E0009C2F92959F70292F30E0892F2A3031055D
:1002F00014F4805D01C0895C61E00FDFE5DE8C2FC6
:100300008F70282F30E02A30310514F4805D01C051
:10031000895C61E002DFCF91D7CECF93DF931F924C
:10032000CDB7DEB72A98880F8E77698383D169812C
:10033000862F80D12A9A0F90DF91CF9108952A9825
:1003400090E0880F991F8E779927806873D180E09D
:1003500071D12A9A08956FE081E0DFCFFCDF6DE86C
:100360008AE2DBDF6EE38BE2D8DF6EE18CE2D5DF81
:1003700060E08DE2D2DF60E485E1CFDF6DE381E113
:10038000CCDF84E1DCDF982F937021F4682F636069
:1003900084E1C3CF08952F923F924F925F927F9254
:1003A0008F929F92AF92BF92CF92DF92EF92FF9285
:1003B0000F931F93CF93DF9300D01F92CDB7DEB77B
:1003C000882EF62E242E722E932E1B830A838C5099
:1003D000833050F490E0FC01E65FFE4F1081FC0199
:1003E000E35FFE4F008102C000E010E084E079830B
:1003F000A6DF682F6F7784E090DF8AE0A0DF682FA8
:1004000060688AE08ADF60E081E087DFAF2C798175
:10041000B72EC12CD12C7601312C412C512C0AC085
:10042000F50161915F0189E078DFFFEFCF1ADF0A04
:10043000EF0AFF0AC214D304E404F50488F3682D1C
:1004400081E06BDF8CE0881206C08DE078DF682FDA
:1004500060688DE062DF70EDC72E77E0D72EE12C6B
:10046000F12C84E06CDFB82EE1E0CE1AD108E1086F
:10047000F10821F080FD02C0802399F38DE05FDF59
:10048000682F6F778DE049DFCD28CE28CF2811F473
:1004900013E051C086E053DF8B71D1F711701B213F
:1004A00011F411E001C012E0FCE08F1244C08AE0B8
:1004B00046DF082F8CE043DF8770202F30E0A90152
:1004C00051F04150510963E0440F551F6A95E1F71F
:1004D000480F511D05C033E0440F551F3A95E1F711
:1004E000662757FD6095762FEA81FB814083518313
:1004F00062837383002319F0013118F403C001E013
:1005000001C000E1472C592CC12CD12C7601802E42
:10051000912CA12CB12C0AC089E011DFF20181934A
:100520002F01FFEFCF1ADF0AEF0AFF0AC814D90420
:10053000EA04FB0488F3812F0F900F900F90DF9156
:10054000CF911F910F91FF90EF90DF90CF90BF90D0
:10055000AF909F908F907F905F904F903F902F90A3
:100560000895EF92FF920F931F93CF93DF9300D0E4
:1005700000D0CDB7DEB7182F7B0167E08DE0CDDE70
:10058000F70110838E010F5F1F4F970141E0B70104
:100590008CE001DF813051F449815A816B817C818B
:1005A000403151056105710509F401C083E00F90E8
:1005B0000F900F900F90DF91CF911F910F91FF90AF
:1005C000EF900895EF92FF920F931F93CF93DF93D5
:1005D00000D000D0CDB7DEB77C0160E08DE09DDEBD
:1005E00083E9F701808380E281838E010F5F1F4FD3
:1005F000970142E0B7018CE0CEDE813059F4F7017B
:1006000024E090E0319193272150E1F7F701248114
:10061000921383E00F900F900F900F90DF91CF9186
:100620001F910F91FF90EF9008958CE284B981E5BE
:100630008CBD08958EBD0DB407FEFDCF8EB5089517
:10064000CF93DF93CDB7DEB76A970FB6F894DEBFCE
:100650000FBECDBF85E0E0E0F1E0DE0156960190EF
:100660000D928A95E1F785E0E5E0F1E0DE01519633
:1006700001900D928A95E1F72FE788E391E02150F0
:1006800080409040E1F700C0000081E076DD60E04E
:1006900082E012DE81E491E0A3DD61E085E00CDE22
:1006A0008DE491E09DDD80E387B9BFDF57DEAFEFDA
:1006B000BEE924E2A150B0402040E1F700C00000B4
:1006C00060E081E02ADD87E33ADE823931F460E0E0
:1006D00082E0F2DD83E591E008C0805960E082307D
:1006E00058F482E0E9DD8BE691E07ADD61E084E0B8
:1006F000E3DD82E691E004C080E0DEDD8AE791E0A0
:100700006FDD8FEF9EE9A4E281509040A040E1F7B9
:1007100000C0000060E081E000DD60E081E0FDDC21
:1007200060E081E0C9DD82E391E05ADD8E010A5E7E
:100730001F4F7E01BBE1EB0EF11CBE016F5F7F4FCF
:1007400082E50FDF8130C9F7CE0101963BDF8130B2
:10075000D9F4F801AE014F5F5F4FCA013191DC015E
:100760002D91CD01321304C0EE15FF05B9F715C068
:10077000FE0171969191DA018D91AD01981321C01E
:10078000E017F107B9F712C060E081E0C6DC60E075
:1007900085E092DD8AE891E01CC060E081E0BDDC8C
:1007A00060E083E089DD80E991E008C060E081E0FD
:1007B000B4DC60E083E080DD8BE991E011DD4EDCAC
:1007C000BCCF60E081E0A9DC60E080E075DD87EA15
:1007D00091E006DDB2CF97FB072E16F4009406D009
:1007E00077FD08D00BD007FC05D03EF4909581959D
:1007F0009F4F0895709561957F4F0895AA1BBB1B6D
:1008000051E107C0AA1FBB1FA617B70710F0A61B10
:10081000B70B881F991F5A95A9F780959095BC0131
:08082000CD010895F894FFCF0B
:100828003D21E4D32B0E65E2139A770012300010B5
:100838004F70656E696E672047617465202E2E2E95
:1008480000436C6F73696E672047617465202E2EB4
:100858002E0053686F7720596F7572204361726458
:1008680000524649442052656164657200312E3059
:100878002E30004D4946415245205243353232769A
:1008880032004465746563746564004D494641529D
:10089800452052433532327631004E6F2072656101
:1008A80064657220666F756E64004572726F7200BF
:1008B80048656C6C6F20426C75650048656C6C6FA0
:1008C800205768697465004E6F74205265636F67BE
:0808D8006E69736564202100C4
:00000001FF
