:1000000012C019C018C017C016C015C014C013C044
:1000100012C011C010C00FC00EC00DC00CC00BC06C
:100020000AC009C008C011241FBECFE5D4E0DEBF5E
:10003000CDBF02D07DC0E4CFB99ABB9ABA9A8C9A50
:100040008D9A8F9AC198C398C298949895989798CA
:10005000C1989498C3989598C298979828EC30E0E6
:10006000C19A8CED95E0F9013197F1F70197D9F735
:10007000C198949A8CED95E0F9013197F1F70197C9
:10008000D9F79498C39A8CED95E0F9013197F1F77F
:100090000197D9F7C398959A8CED95E0F9013197BE
:1000A000F1F70197D9F79598C29A8CED95E0F9018F
:1000B0003197F1F70197D9F7C298979A8CED95E0AF
:1000C000F9013197F1F70197D9F79798C9CFF894CB
:1000D000C1989498C3989598C2989798B99ABB9AE2
:1000E000BA9A8C9A8D9A8F9AC198C398C29894980C
:1000F000959897988B9A48E028EC30E082B3842753
:1001000082BB88EE93E0F9013197F1F70197D9F7B7
:10011000F5CFB19B02C0849904C0B39B04C0859BFA
:1001200002C0D5DF0895B29B02C08799D0DF089541
:04013000F894FFCF71
:00000001FF
