:200000000C9432010C945A010C945A010C94A40B0C94CE0B0C94F80B0C945A010C945A01B6
:200020000C945A010C945A010C945A010C945A010C945A010C945A010C945A010C945A01E8
:200040000C94BB0E0C945A010C94A3100C94F1100C945A010C945A010C945A010C945A015C
:200060000C945A010C945A01005EBCE2613FDD83C29C7E20A3FD1F419DC3217FFCA2401E96
:200080005F01E3BD3E6082DC237D9FC1421CFEA0E1BF5D0380DE3C62BEE0025CDF81633D70
:2000A0007C22C09E1D43A1FF4618FAA427799BC584DA3866E5BB5907DB856739BAE4065850
:2000C0001947A5FB7826C49A653BD987045AB8E6A7F91B45C6987A24F8A6441A99C7257B30
:2000E0003A6486D85B05E7B98CD2306EEDB3510F4E10F2AC2F7193CD114FADF3702ECC9210
:20010000D38D6F31B2EC0E50AFF1134DCE90722C6D33D18F0C52B0EE326C8ED0530DEFB1EF
:20012000F0AE4C1291CF2D73CA947628ABF517490856B4EA6937D58B5709EBB536688AD4CF
:2001400095CB2977F4AA4816E9B7550B88D6346A2B7597C94A14F6A8742AC896154BA9F7AF
:20016000B6E80A54D7896B3500C201000100110011000C0000E100000A002500250021003B
:20018000009600001900390039003600127A00001F004600460044008070000022004D002E
:2001A0004D004A00004B00003600750075007200403800004A009C009C0099008025000093
:2001C0007200EC00EC00E900C0120000E900DA01DA01D70160090000D701B603B603B3033A
:2001E000B0040000B3036E076E076B07580200006E07DC0EDC0ED80E2C010000DC0EC11DBB
:20020000C11DBE1D00000000240027002A0000000000250028002B000000000023002600EF
:20022000290004040404040404040202020202020303030303030102040810204080010255
:20024000040810200102040810200000000700020100000304060000000000000000CF023B
:200260005D12C80211241FBECFEFD8E0DEBFCDBF11E0A0E0B1E0EEE7F5E302C005900D92EF
:20028000A83EB107D9F713E0A8EEB1E001C01D92A733B107E1F712E0C2E6D2E004C0229733
:2002A000FE010E94A31ACE35D107C9F70E94B3120C94B21A0C9400002F923F925F926F924E
:2002C0007F928F929F92AF92BF92CF92DF92EF92FF920F931F93CF93DF938C011B01EA0189
:2002E0006115710519F0FB0191838083209749F0CE010297839728F020E030E040E050E00C
:20030000F6C0F801A1908F018A2D90E00E94A71A892BB9F7FDE2AF1631F4F801A1908F01FC
:200320005524539407C0FBE2AF1619F4F801A1908F015524209719F0C031D105C1F4F0E3A5
:20034000AF1679F4F8018081883711F0883549F4F801A1800E5F1F4FF2E05F2AC0E1D0E016
:2003600006C0209721F480E3A816E9F427C0C830D10531F1C930D10524F4C230D10531F541
:200380000CC0CA30D10589F0C031D105F9F4C12CD12CE12CB8E0FB2E28C0C12CD12CE12CFD
:2003A000A0E4FA2E22C0CAE0D0E0FCECCF2EFCECDF2EFCECEF2EFCE0FF2E17C0C8E0D0E03E
:2003C000C12CD12CE12CE0E1FE2E0FC09E01442737FD4095542F60E070E080E090E80E94CA
:2003E0006B1AC901DA016C017D0120E030E040E050E060E03E01882477FC8094982C70EDB5
:20040000B72EBA0CE9E0EB1570F48A2D81548A3118F499ECB92E06C08A2D81568A3150F5F1
:2004200089EAB82EBA0C8B2D90E08C179D0714F56F3FE1F0C216D306E406F506B0F0CA01A5
:20044000B901A40193010E94391A9B01AC012B0D311D411D511D2130F0E03F07F0E04F078C
:20046000F0E85F0710F461E001C06FEFF801A1908F01C5CF2114310481F0662331F00150B6
:200480001040F1011183008308C051FE1AC002501040F1011183008314C067FF12C050FC0F
:2004A00005C02FEF3FEF4FEF5FE704C020E030E040E050E882E290E0909336038093350300
:2004C00016C050FE08C050954095309521953F4F4F4F5F4F0CC057FF0AC082E290E090933E
:2004E0003603809335032FEF3FEF4FEF5FE7B901CA01DF91CF911F910F91FF90EF90DF9086
:20050000CF90BF90AF909F908F907F906F905F903F902F900895FB01DC0102C001900D92AD
:2005200041505040D8F70895FB01DC018D91019080190110D9F3990B0895FB01DC01019085
:200540000D920020E1F7089581309105B9F46F5F7F4FE9F48CEF91E064E042E020E00E9406
:200560008D0E89E192E06091BD010E94040B87E292E069E172E00E94EB050895892B39F41D
:200580006F5F7F4F21F48CEF91E00E94140D089580E090E06FEF7FEF0E94A402089581E07C
:2005A00090E06FEF7FEF0E94A402089587E292E00E94B00764EF71E080E090E00E94110FB0
:2005C0008091FB01882381F08CEF91E060E071E00E940E1487E292E060E00E948A08AB01B6
:2005E000BC018CEF91E00FC08FE093E060E071E00E940E1487E292E060E00E948A08AB0151
:20060000BC018FE093E022E030E00E94F51408950F931F93CF93DF930FEF10E06CC01093FC
:20062000F6010093F5011092F8011092F7011092FA011092F9018091B70161E00E944E10C2
:200640008091BB0161E00E944E108091B90161E00E944E10C0E0D0E08FE093E00E94B311E8
:200660001816190644F08CEF91E00E943E0D181619060CF046C0109218021092F6011092DA
:20068000F5011092F8011092F7011093FA010093F901C0E0D0E08FE093E00E94B31118163E
:2006A000190644F08CEF91E00E943E0D181619060CF058C0109218021092F6011092F501C0
:2006C0001093F8010093F7011092FA011092F901C0E0D0E08FE093E00E94B31118161906D5
:2006E00044F08CEF91E00E943E0D181619060CF06AC01092180280911802882309F08FCF91
:2007000093C02091F9013091FA012F5F3F4F3093FA012093F9018091F5019091F6010197E1
:200720009093F6018093F501B801621B730B8091B9010E94AF0F8091F5019091F601B801DF
:20074000681B790B8091B7010E94AF0F64E170E080E090E00E94110F2196CF3FD10509F0AE
:200760007BCF8BCF2091F7013091F8012F5F3F4F3093F8012093F7018091F9019091FA01C8
:2007800001979093FA018093F901B801621B730B8091BB010E94AF0F8091F9019091FA018E
:2007A000B801681B790B8091B9010E94AF0F64E170E080E090E00E94110F2196CF3FD1058C
:2007C00009F069CF79CF2091F5013091F6012F5F3F4F3093F6012093F5018091F701909198
:2007E000F80101979093F8018093F701B801621B730B8091B7010E94AF0F8091F70190913A
:20080000F801B801681B790B8091BB010E94AF0F64E170E080E090E00E94110F2196CF3F06
:20082000D10509F057CF67CFDF91CF911F910F910895EF92FF920F931F93DF93CF93CDB712
:20084000DEB760970FB6F894DEBF0FBECDBFE091F201F091F301E851FE4F10828FE093E0F2
:2008600067E071E00E940E148FE093E068EE71E00E9408151092F3011092F2018E010D5FAE
:200880001F4FC80168EE71E00E94841588EE91E06AE171E00E9494020097A1F48FE093E076
:2008A00060E271E00E9408158091B70160E00E944E108091BB0160E00E944E108091B90105
:2008C00060E01BC088EE91E06FE271E00E9494020097B1F48FE093E066E371E00E940815C5
:2008E0008091B70161E00E944E108091BB0161E00E944E108091B90161E00E944E10C4C050
:2009000088EE91E066E471E00E949402009761F48FE093E06DE471E00E94081581E080937A
:2009200018020E940803B0C088EE91E061E571E00E949402009749F48FE093E061E571E07D
:200940000E9408150E94D6029FC08AE0E82EF12CEC0EFD1EC701B80140E050E024E030E068
:200960000E94B7158A859B8566E571E00E9494028C01C7010E94FE15012B09F07FC08FE029
:2009800093E06BE571E00E9408158F8198850A9709F07AC08CEE91E0BE016F5F7F4F40E11C
:2009A00050E00E945C017B018C01802F90E09093F6018093F5018F2D90E09093FA01809360
:2009C000F901C70190709093F8018093F7018FE093E069E671E00E940E148FE093E0B8014D
:2009E000A7012AE030E00E94DB138FE093E06FE671E00E940E146091F5017091F6018FE00B
:200A000093E04AE050E00E94EF138FE093E063E771E00E940E146091F9017091FA018FE0CE
:200A200093E04AE050E00E94EF138FE093E067E771E00E940E146091F7017091F8018FE0AE
:200A400093E04AE050E00E94EF136091F5017091F6018091B7010E94AF0F6091F701709133
:200A6000F8018091BB010E94AF0F6091F9017091FA018091B9010E94AF0F06C08FE093E096
:200A80006BE771E00E940815CE0103960E94FE1560960FB6F894DEBF0FBECDBFCF91DF91CA
:200AA0001F910F91FF90EF9008951F938CEF91E00E943E0D20E0181619060CF421E02093AF
:200AC000F401222369F081E08093FB018CEF91E00E941D0D182F8FE093E06BE871E018C0B6
:200AE0008FE093E00E94B31120E0181619060CF421E02093F401222399F11092FB018FE0DC
:200B000093E00E94E411182F8FE093E064EA71E00E9408152091F2013091F301F901E851B8
:200B2000FE4F10831A3049F48FE093E065E971E00E9408150E94190413C08091BF0190918A
:200B4000C0012F5F3F4F3093F3012093F201215030402817390724F01092F3011092F201BC
:200B60001F9108958FE093E040E855E260E070E00E942C118091B70161E00E940F1080919C
:200B8000BB0161E00E940F108091B90161E00E940F108091B70161E00E944E108091BB01F3
:200BA00061E00E944E108091B90161E00E944E101092F3011092F2018CEF91E040E855E272
:200BC00060E070E00E94220C1092FB0187E292E00E94B1080895FC0181EB96E0928B818B3C
:200BE000768365831482108289E0818381E08283838308956F927F928F929F92AF92BF9280
:200C0000CF92DF92EF92FF920F931F93CF93DF93FB01EA01998180E0288130E0282B392BF7
:200C2000E081E23231F0E83221F0E03109F084C04BC04C814F3329F1403420F44F3109F030
:200C40007BC02FC04F3579F04F3709F075C0B901882777FD8095982F0E941E1920E030E027
:200C600040E85DE32EC035952795B901882777FD8095982F0E941E1920E030E040E05EE395
:200C800020C03595279535952795B901882777FD8095982F0E941E1920E030E040E85EE35D
:200CA00010C093E0359527959A95E1F7B901882777FD8095982F0E941E1920E030E040E0A2
:200CC0005FE30E94D21932C0EF8035952795B901882777FD8095982F0E941E1920E030E0BC
:200CE00040E85EE30E941A183B014C016E2D70E02E81621B7109882777FD8095982F0E94FC
:200D00001E195B016C01FF2400E010E0C801B7010E941C199B01AC01C601B5010E94831885
:200D20009B01AC01C401B3010E941B189B01AC01832F942F752F00C0262F382F492F572F40
:200D4000B901CA01DF91CF911F910F91FF90EF90DF90CF90BF90AF909F908F907F906F9028
:200D600008950895EF92FF920F931F938C017B01FC01858196810E94230AF80185819681CB
:200D8000B7010E94020AF8018581968164EB40E00E94BD09F801858196810E943809F82EE1
:200DA000F801858196810E94230A80E0FF2009F481E01F910F91FF90EF900895CF92DF92A4
:200DC000EF92FF920F931F938C016B017A01FC01858196810E94230AF80185819681B60183
:200DE0000E94020AF801858196816EEB40E00E94BD09F801858196810E946C09F701808326
:200E0000F801858196810E946C09F7018183F801858196810E946C09F7018283F801858180
:200E200096810E946C09F7018383F801858196810E946C09F7018483F801858196810E94A2
:200E40006C09F7018583F801858196810E946C09F7018683F801858196810E946C09F701CA
:200E60008783F801858196810E946C09F7018087F801858196810E94230A1F910F91FF9078
:200E8000EF90DF90CF900895DF93CF93CDB7DEB729970FB6F894DEBF0FBECDBFAE014F5F17
:200EA0005F4F0E94DE068981811181E029960FB6F894DEBF0FBECDBFCF91DF910895CF922D
:200EC000DF92EF92FF920F931F93CF93DF93EC016B01452BE1F08B818823C9F088818823A9
:200EE000B1F40E94030F7B018C01CE0160E070E00E944407882359F40E94030F6E197F0989
:200F0000800B910B6E5E72408040904070F3F6016081693039F06930A0F06A3041F06B3010
:200F200081F40AC06EE570E080E090E00EC06CEB70E080E090E009C067E771E080E090E082
:200F400004C06EEE72E080E090E00E94110FDF91CF911F910F91FF90EF90DF90CF900895F4
:200F6000CF93DF93EC018D819E810E94230A8D819E810E94FD098D819E8164E448810E94FF
:200F8000BD098A81882339F0CE012196BE0140E050E00E945F07DF91CF9108950F931F934E
:200FA0008A010E94DE06C80168E00E94270920E0F8019085891709F421E0822F1F910F9190
:200FC0000895CF92DF92EF92FF920F931F93DF93CF93CDB7DEB729970FB6F894DEBF0FBED4
:200FE000CDBF8C017B016E010894C11CD11CA6010E94CE07882329F460E070E08EEF92EC16
:2010000005C0C801B701A6010E94FA0529960FB6F894DEBF0FBECDBFCF91DF911F910F911C
:20102000FF90EF90DF90CF900895DF93CF93CDB7DEB729970FB6F894DEBF0FBECDBF9C01A6
:20104000FB0180818031D9F0C901AE014F5F5F4F0E94CE078823A9F08D818F3371F08034A4
:2010600018F48F3171F40BC08F3519F08F3749F402C08BE007C08CE005C08AE003C089E0E9
:2010800001C080E029960FB6F894DEBF0FBECDBFCF91DF9108950F931F938B01CB0167E0C9
:2010A0000E94270920E0F8019781891709F421E0822F1F910F910895EF92FF920F931F93AB
:2010C000CF93DF93EC017B01042F8D819E810E941A0910E007C0CE01B7010E944B088823D0
:2010E000A9F00AC08D819E81B7010E946E0A882329F0101759F4EFCF81E001C080E0DF91A6
:20110000CF911F910F91FF90EF9008951F5F0117A8F3E8CFEF92FF920F931F93DF93CF9352
:20112000CDB7DEB728970FB6F894DEBF0FBECDBF7C01462F8E010F5F1F4FB8010E945C0874
:20114000C701B8010E94E10728960FB6F894DEBF0FBECDBFCF91DF911F910F91FF90EF9051
:201160000895AF92BF92CF92DF92EF92FF920F931F93DF93CF93CDB7DEB761970FB6F894D2
:20118000DEBF0FBECDBF7C01FC01858196810E941A09F70114826E010894C11CD11C79E041
:2011A000A72EB12CAC0EBD1E01E02BC0C701B6010E944B08882329F1F7018081882341F40A
:2011C000C701B6010E94B206882311F0F7010083C701B601A5010E94DE06F7011181C70112
:2011E000B6010E941508811718F4F701818104C0C701B6010E941508F701818384818F5FEA
:201200008483F70185819681B6010E946E0A882369F661960FB6F894DEBF0FBECDBFCF9139
:20122000DF911F910F91FF90EF90DF90CF90BF90AF900895FC0113861586148687E090E045
:2012400012863197009711F00197FACF0895DC0180E00BC0E82FF0E08D9190E0E827F927EC
:20126000E859FF4FE49161508E2F662399F70895DF92EF92FF920F931F93FC01E080018190
:201280001281F894F80181818E2981838281DE2CD0948D21828383E090E00E946A0FF8016E
:2012A00081818D2181838AE090E00E946A0FF8010081789485E390E00E946A0F80E010E0BC
:2012C000FF240E211F21012B09F081E01F910F91FF90EF90DF900895EF92FF920F931F9326
:2012E000CF93DF937C0101E010E0C0E0D0E0C7010E9438098111102B000F2196C830D10570
:20130000B1F7812FDF91CF911F910F91FF90EF9008951F93CF93DF93FC011081C181D28101
:20132000912F909560FF12C0F8948A8189238A838981812B89838AE090E00E946A0F8A8185
:20134000812B8A83789487E390E011C0F8948A8189238A838981812B898381E490E00E9494
:201360006A0F8A81812B8A83789485E090E00E946A0FDF91CF911F910895CF92DF92EF92C4
:20138000FF920F931F93CF93DF938C01E42EFF24F394C0E0D0E0C62EDD2460E08F2D90E09A
:2013A0008C219D21892B09F061E0C8010E948909FF0C2196C830D10581F7EE20A9F4F89498
:2013C000D8011196ED91FC91129791818C918095982391831196ED91FC91129792818C913B
:2013E0008095982392837894DF91CF911F910F91FF90EF90DF90CF9008956CEC40E00E9449
:20140000BD090895EF92FF920F931F93CF93DF938C017B0165E540E00E94BD09C0E0D0E004
:20142000F701EC0FFD1FC801608140E00E94BD092196C830D105A1F7DF91CF911F910F912E
:20144000FF90EF900895DF92EF92FF920F931F93CF93DF93FC010081C181D281F89489818D
:20146000D02ED0948D21898378941DE7E02EFF24115059F182E090E00E946A0F888190E0FE
:201480008E219F21892BA1F3F8948A818D218A838981802B8983789480EE91E00E946A0F7C
:2014A000F89489818D21898386E490E00E946A0F888110E090E0E822F922EF2809F411E054
:2014C00078948AE991E00E946A0F812FDF91CF911F910F91FF90EF90DF900895AF92BF9285
:2014E000DF92EF92FF920F931F93CF93DF93EC015B018D85882309F061C0CE010E94230A83
:20150000882329F41B861D861C8690E06BC0CE0160EF40E00E94BD0901E0DD24EE24FF24C5
:20152000F394CE010E943809182FCE010E943809113019F48130E1F439C0181709F58B856F
:20154000081770F460E0FE01EE0DF11D838190E02F2D30E082239323181619064CF003C039
:2015600060E0081729F0093008F04CC00C874AC0FE01EE0DF11D83818F29838361E009C045
:20158000612FFE01EE0DF11D9F2D9095838189238383CE010E9489090F5FFF0C19F4E3940C
:2015A000FF24F39487E08E1508F0BBCF013430F0DB86DD2011F581E08D871FC01B861D86A4
:2015C0001C8690E0DE0120E030E0F501E20FF31F13968C91139780832F5F3F4F1196283083
:2015E000310599F7892FDF91CF911F910F91FF90EF90DF90BF90AF9008958B818823F1F20B
:2016000091E0E0CFD02EBDCFFF920F931F938C01F62E862F60E00E940F108F2D90E0FC01AB
:20162000EA5CFD4FE491D801EC938E5D9D4FFC016491E62FF0E0EE0FFF1FE85EFD4F8591DA
:20164000949112969C938E9311971B961C921B971D961C921D971C961C92F80187E090E06F
:2016600012863197009711F00197FACF1F910F91FF9008950F931F93CF93DF93FC01738D70
:2016800076957170A685B7859585772329F08C91892309F454C004C08C91892309F04FC0BB
:2016A0008389948920E001972FEF8F3F9207D9F7C589D689A685B785158560E031E040E0F5
:2016C00050E000E0CE01202F01972FEF8F3F9207D9F78C91812311F0632B03C0832F809515
:2016E0006823330F4F5F5F4F4830510559F78789908D20E001972FEF8F3F9207D9F7711107
:20170000609580917C0220917D0290E001968F73907030E08217930779F0E0917C02F0E0A1
:20172000E45CFD4F608380917C0290E001968F73907080937C0203C0838D8160838FDF91DB
:20174000CF911F910F9108951F920F920FB60F9211242F933F934F935F936F937F938F93B1
:201760009F93AF93BF93EF93FF9380913A0290913B02009711F00E943A0BFF91EF91BF9105
:20178000AF919F918F917F916F915F914F913F912F910F900FBE0F901F9018951F920F9290
:2017A0000FB60F9211242F933F934F935F936F937F938F939F93AF93BF93EF93FF93809105
:2017C0003A0290913B02009711F00E943A0BFF91EF91BF91AF919F918F917F916F915F9100
:2017E0004F913F912F910F900FBE0F901F9018951F920F920FB60F9211242F933F934F93AF
:201800005F936F937F938F939F93AF93BF93EF93FF9380913A0290913B02009711F00E94E1
:201820003A0BFF91EF91BF91AF919F918F917F916F915F914F913F912F910F900FBE0F90F8
:201840001F901895CF92DF92EF92FF920F931F93CF93DF93EC017A018B011A8E198E188E37
:201860001F8A1E8A1D8A1C8A1B8A20E030E06901CC0CDD1CC20ED31EB601660F771F660FE2
:20188000771FAB0148595E4FFA0185919591A591B4918E159F05A007B107E9F4FB01E4594A
:2018A000FE4F859194919C8B8B8BFB01E259FE4F859194919E8B8D8BFB01E059FE4F8591CB
:2018C0009491988F8F8BFB01EE58FE4F859194919A8F898F06C02F5F3F4F2D30310509F029
:2018E000C6CF8F89988D892B09F449C04C85463108F03DC090916800483010F484E005C0F1
:201900004E3010F082E001C081E0892B80936800483028F4EDE6F0E0ADE6B0E00BC04E30F3
:2019200028F0ECE6F0E0ACE6B0E004C0EBE6F0E0ABE6B0E05081483040F481E090E002C035
:20194000880F991F4A95E2F710C0242F30E04E3018F42850304002C02E50304081E090E05A
:2019600002C0880F991F2A95E2F7852B8C93898D9A8D20E001972FEF8F3F9207D9F78091B4
:201980003A0290913B028C179D0781F08B8D8E7F8B8F9FB7F89410927C0280917C02809312
:2019A0007D02D0933B02C0933A029FBFDF91CF911F910F91FF90EF90DF90CF900895FC0185
:2019C0004485463180F5483028F4EDE6F0E0ADE6B0E00BC04E3028F4EBE6F0E0ABE6B0E0D1
:2019E00004C0ECE6F0E0ACE6B0E05081483040F481E090E002C0880F991F4A95E2F710C078
:201A0000242F30E04E3018F42850304002C02E50304081E090E002C0880F991F2A95E2F7C7
:201A2000809585238C930895FC018BEC91E091838083CF010E94DF0C089520913A02309189
:201A40003B022817390731F490917D0280917C02981719F42FEF3FEF0FC0E0917D02F0E0DF
:201A6000E45CFD4F208180917D0290E001968F73907080937D0230E0C901089520913A02AA
:201A800030913B022817390719F020E030E00EC080917C0220917D0290E0805C9F4F821B4C
:201AA000910960E470E00E94581A9C01C90108950F931F93DC0159968D919C915A97892BD0
:201AC00049F481E090E013969C938E93129720E030E097C00FB7F8945B968C915B975196B6
:201AE000ED91FC91529750962C91509781FF8DC08081822B808359968D919C915A97059624
:201B000020E001972FEF8F3F9207D9F75B968C915B9781FF35C031E040E050E070E010E0C2
:201B2000832F90E0862397235196ED91FC91529750962C915097892B29F0808120952823ED
:201B4000208303C08081822B808359968D919C915A97212F01972FEF8F3F9207D9F7330FC4
:201B60004F5F5F4F48305105D9F65196ED91FC915297908150968C9150978095892333C0E2
:201B800031E040E050E070E010E0832F90E0862397235196ED91FC91529750962C915097BA
:201BA000892B21F08081822B808304C0808120952823208359968D919C915A97212F019734
:201BC0002FEF8F3F9207D9F7330F4F5F5F4F48305105D9F65196ED91FC91529780815096B3
:201BE0009C915097892B80830FBF59968D919C915A9720E001972FEF8F3F9207D9F721E033
:201C000030E0C9011F910F910895808120952823208371CF20913A0230913B0228173907AF
:201C200049F49FB7F89410927C0280917C0280937D029FBF089520913A0230913B0228171F
:201C4000390731F490917D0280917C02981719F42FEF3FEF0AC0E0917D02F0E0E45CFD4FD2
:201C60008081282F332727FD3095C90108951F93CF93DF93EC01162F862F60E00E940F10F4
:201C80008B8D81FD04C0812F61E00E944E101C87212F30E0C9018A5C9D4FFC0184918D8734
:201CA0002E5D3D4FF9016491E62FF0E0EE0FFF1FE85EFD4F859194919F878E87DF91CF9146
:201CC0001F910895FF920F931F938C01F62E862F61E00E940F108F2D61E00E944E108F2DB1
:201CE00090E0FC01EA5CFD4FE491D8015096EC9350978E5D9D4FFC016491E62FF0E0EE0FA0
:201D0000FF1FE25FFD4F8591949152969C938E9351971F910F91FF900895FF920F931F935C
:201D20008C01F62EFC011382128288EE93E0A0E0B0E084839583A683B7838BEC91E0918355
:201D40008083148A138A168A158A108E178A128E118E838D2170220F8C7F822B838FC80123
:201D6000642F0E94620EC8016F2D0E94370E1F910F91FF9008951F920F920FB60F92112409
:201D80002F933F938F939F93AF93BF938091820290918302A0918402B091850230918602C4
:201DA0000196A11DB11D232F2D5F2D3720F02D570196A11DB11D2093860280938202909312
:201DC0008302A0938402B093850280917E0290917F02A0918002B09181020196A11DB11D2E
:201DE00080937E0290937F02A0938002B0938102BF91AF919F918F913F912F910F900FBE55
:201E00000F901F9018958FB7F894209182023091830240918402509185028FBFB901CA01E8
:201E200008959B01AC017FB7F89480917E0290917F02A0918002B091810266B5A89B05C02D
:201E40006F3F19F00196A11DB11D7FBFBA2FA92F982F8827860F911DA11DB11D62E0880F8B
:201E6000991FAA1FBB1F6A95D1F7BC012DC0FFB7F89480917E0290917F02A0918002B0912D
:201E80008102E6B5A89B05C0EF3F19F00196A11DB11DFFBFBA2FA92F982F88278E0F911D82
:201EA000A11DB11DE2E0880F991FAA1FBB1FEA95D1F7861B970B885E9340C8F22150304004
:201EC0004040504068517C4F211531054105510571F60895019739F0880F991F880F991F03
:201EE00002970197F1F70895789484B5826084BD84B5816084BD85B5826085BD85B58160F0
:201F000085BDEEE6F0E0808181608083E1E8F0E01082808182608083808181608083E0E838
:201F2000F0E0808181608083E1EBF0E0808184608083E0EBF0E0808181608083EAE7F0E047
:201F40008081846080838081826080838081816080838081806880831092C10008951F9330
:201F6000CF93DF93182FEB0161E00E940F10209709F44AC0CF3FD10509F449C0E12FF0E0D0
:201F8000E65BFD4F84918330C1F0843028F4813051F08230B1F50CC0863019F1873049F1A4
:201FA000843079F514C084B5806884BDC7BD33C084B5806284BDC8BD2EC08091800080680A
:201FC00080938000D0938900C093880024C080918000806280938000D0938B00C0938A00F2
:201FE0001AC08091B00080688093B000C093B30012C08091B00080628093B000C093B40056
:202000000AC0C038D1051CF4812F60E002C0812F61E00E944E10DF91CF911F910895CF93F6
:20202000DF93482F50E0CA018A5C9D4FFC0134914E5D5D4FFA018491882369F190E0880FB5
:20204000991FFC01EC5FFD4FA591B491FC01E25FFD4FC591D491662351F42FB7F8948C9117
:20206000932F909589238C93888189230BC0623061F42FB7F8948C91932F909589238C9306
:202080008881832B88832FBF06C09FB7F8948C91832B8C939FBFDF91CF910895482F50E08C
:2020A000CA01865B9D4FFC012491CA018A5C9D4FFC0194914E5D5D4FFA013491332309F4AD
:2020C00040C0222351F1233071F0243028F42130A1F0223011F514C02630B1F02730C1F048
:2020E0002430D9F404C0809180008F7703C0809180008F7D8093800010C084B58F7702C0A0
:2021000084B58F7D84BD09C08091B0008F7703C08091B0008F7D8093B000E32FF0E0EE0F77
:20212000FF1FE25FFD4FA591B4912FB7F894662321F48C919095892302C08C91892B8C93C9
:202140002FBF089508951F920F920FB60F9211242F933F934F938F939F93EF93FF9380917B
:20216000C00082FD1DC04091C6002091C7023091C8022F5F3F4F2F7330708091C90290914C
:20218000CA022817390771F0E091C702F091C802E957FD4F40833093C8022093C70202C0F4
:2021A0008091C600FF91EF919F918F914F913F912F910F900FBE0F901F901895E0911B0382
:2021C000F0911C03E05CFF4F8191919120813181821B930B8F739070892B11F00E94A21008
:2021E00008951F920F920FB60F9211242F933F938F939F93EF93FF9320910B0330910C03CA
:2022000080910D0390910E032817390731F48091C1008F7D8093C10014C0E0910D03F0913F
:202220000E03E553FD4F208180910D0390910E0301968F73907090930E0380930D03209372
:20224000C600FF91EF919F918F913F912F910F900FBE0F901F901895AF92BF92DF92EF92DD
:20226000FF920F931F93CF93DF93EC017A018B01DD24403081EE580780E0680780E07807C4
:2022800011F0DD24D39491E0A92EB12CEC89FD89DD2069F0C50108A002C0880F991F0A9442
:2022A000E2F7808360E079E08DE390E005C0108260E874E88EE190E0A80197010E946B1A87
:2022C0002150304040405040569547953795279580E12030380720F0DD2011F0DD24D6CF1A
:2022E000E889F9893083EA89FB89208319A2EE89FF89408121E030E0C9010C8C02C0880F57
:20230000991F0A94E2F7482B4083EE89FF894081C9010D8C02C0880F991F0A94E2F7482B3A
:202320004083EE89FF894081C9010E8C02C0880F991F0A94E2F7482B4083EE89FF898081F8
:202340000F8C02C0220F331F0A94E2F7209528232083DF91CF911F910F91FF90EF90DF90E6
:20236000BF90AF900895DC011C96ED91FC911D97E05CFF4F2191319180819181281B390B4C
:202380002F733070C9010895DC011C96ED91FC911D97E05CFF4F20813181E054F040DF0125
:2023A000AE5BBF4F8D919C9111972817390719F42FEF3FEF07C08D919C91E80FF91F808119
:2023C000282F30E0C9010895DC011C96ED91FC911D97E05CFF4F20813181E054F040DF01C0
:2023E000AE5BBF4F8D919C9111972817390719F42FEF3FEF10C08D919C911197E80FF91F29
:2024000020818D919C91119701968F73907011969C938E9330E0C9010895DC0191968C9100
:202420009197882339F05496ED91FC915597808186FFF9CF91961C920895CF93DF93EC013E
:20244000EE85FF85E05CFF4F20813181E054F0402F5F3F4F2F733070DF01AE5BBF4F8D91D1
:202460009C91119728173907D1F3E05CFF4F80819181E054F040E80FF91F6083EE85FF855A
:20248000E05CFF4F31832083EE89FF89208181E090E00F8C02C0880F991F0A94E2F7282B74
:2024A000208381E089A3EC89FD8980818064808381E090E0DF91CF91089510921203109272
:2024C000110388EE93E0A0E0B0E08093130390931403A0931503B09316038BED91E09093D9
:2024E000100380930F0387E892E090931C0380931B038BEC92E090931E0380931D0385EC7F
:2025000090E09093200380931F0384EC90E0909322038093210380EC90E090932403809338
:20252000230381EC90E0909326038093250382EC90E0909328038093270386EC90E09093A3
:202540002A038093290384E080932B0383E080932C0387E080932D0385E080932E0381E011
:2025600080932F030895CF93DF930E94740F0E94B205CEEDD0E10E9455052097E1F30E9492
:20258000DE10F9CFCF92DF92EF92FF920F931F93CF93DF937C016B018A01C0E0D0E00FC0E6
:2025A000D6016D916D01D701ED91FC910190F081E02DC7010995C80FD91F015010400115FA
:2025C000110571F7CE01DF91CF911F910F91FF90EF90DF90CF900895EF92FF920F931F93AF
:2025E0008C01DC01ED91FC910190F081E02D6DE009957C01D801ED91FC910190F081E02DFC
:20260000C8016AE009959C012E0D3F1DC9011F910F91FF90EF900895CF93DF93EC016115D9
:20262000710519F420E030E00FC0DB010D900020E9F71197A61BB70BE881F9810280F381BB
:20264000E02DAD0109959C01C901DF91CF9108954F925F927F928F929F92AF92BF92CF9225
:20266000DF92EF92FF920F931F93DF93CF93CDB7DEB7A1970FB6F894DEBF0FBECDBF2C01EA
:20268000742ECB01223008F42AE019A231E2C32ED12CCC0EDD1E822E9924AA24BB24672D35
:2026A000752FA50194010E946B1A79018A01C801B701A50194010E94391A472D461B0894ED
:2026C000C108D1084A3014F4405D01C0495CF6014083E114F1040105110521F07E2C5F2DCC
:2026E000C801DDCFC201B6010E940C13A1960FB6F894DEBF0FBECDBFCF91DF911F910F918C
:20270000FF90EF90DF90CF90BF90AF909F908F907F905F904F900895DC012115310541F409
:20272000ED91FC910190F081E02D642F099508950E9428130895CF92DF92EF92FF920F93B1
:202740001F93CF93DF93EC016A017B012115310541F4E881F9810190F081E02D642F09955B
:202760001FC02A303105D1F477FF17C0E881F9810190F081E02D6DE209958C014427552785
:20278000BA014C195D096E097F09CE012AE00E9428139801280F391F04C02AE00E9428132B
:2027A0009C01C901DF91CF911F910F91FF90EF90DF90CF900895EF92FF920F931F937C0136
:2027C0000E949B138C01C7010E94EC129C01200F311FC9011F910F91FF90EF900895CF9272
:2027E000DF92EF92FF920F931F936C017B019A010027F7FC0095102FB801A7010E949B13DF
:202800008C01C6010E94EC12080F191FC8011F910F91FF90EF90DF90CF9008950E940C1322
:2028200008957F928F929F92AF92BF92CF92DF92EF92FF920F931F93CF93DF934C017A0132
:202840008B01722ECB01BA01A80197010E94351A882321F0C40168EA71E021C0C0E0D0E03E
:2028600057016801E894D7F8C601B5012FEF3FEF4FE75FE70E94351A882351F4C601B501A9
:202880002FEF3FEF4FE75FE70E947F18181614F0C1E0D0E0219739F0C4016CEA71E00E94C5
:2028A0000C13EC0193C0C801B7012FEF3FEF4FE75FE40E94CE19181654F0C801B7012FEFD9
:2028C0003FEF4FE75FEC0E947F18882324F4C40160EB71E0E4CFC801B70120E030E040E088
:2028E00050E00E947F1887FD03C0C0E0D0E00EC0D401ED91FC910190F081E02DC4016DE207
:202900000995EC0117FB109517F9109520E030E040E05FE3DD240BC0CA01B90120E030E0ED
:2029200040E251E40E9483189B01AC01D394D71498F3C801B7010E941B185B016C010E941C
:20294000F0187B018C01C401B801A7012AE030E00E948C13C80FD91F772039F0C40164EB42
:2029600071E00E940C13C80FD91FC801B7010E941C199B01AC01C601B5010E941A1824C0A0
:2029800020E030E040E251E40E94D2197B018C010E94EB185B016C01CC24B7FCC094DC2CCD
:2029A000C401B601A5012AE030E00E949B13C80FD91FC601B5010E941E199B01AC01C80154
:2029C000B7010E941A187A947720D1F6CE01DF91CF911F910F91FF90EF90DF90CF90BF90E5
:2029E000AF909F908F907F900895EF92FF920F931F937C010E9411148C01C7010E94EC12FF
:202A0000080F191FC8011F910F91FF90EF900895EF92FF920F931F937C010E940C138C0172
:202A2000C7010E94EC12080F191FC8011F910F91FF90EF9008950F931F93CF93DF93EC0106
:202A40008B016F5F7F4F888199810E943917009711F480E005C0998388831B830A8381E0C5
:202A6000DF91CF911F910F910895CF93DF93EC0188819981892B29F08A819B818617970786
:202A800060F4CE010E941B15882341F08C819D81892B19F4E881F981108281E0DF91CF91D3
:202AA0000895CF93DF93EC0188819981009711F00E94A116198218821D821C821B821A82F9
:202AC000DF91CF910895EF92FF920F931F93CF93DF93EC017B018A01BA010E943515882309
:202AE00021F4CE010E94511507C01D830C8388819981B7010E949D02CE01DF91CF911F9189
:202B00000F91FF90EF900895CF93DF93EC01198218821B821A821D821C821E826115710572
:202B200051F0DB010D900020E9F71197A61BB70BAD010E946315DF91CF9108950F931F9327
:202B4000182F092F6115710559F0DB010D900020E9F71197A61BB70BAD010E94631502C093
:202B60000E945115812F902F1F910F910895BF92CF92DF92EF92FF920F931F93CF93DF9394
:202B8000082FB92E6B017A01E9012417350710F4EA017901802F9B2D66EB71E00E94841512
:202BA000D60114968D919C9115978E159F05D0F08C179D0708F4EC01D601ED91FC911197DC
:202BC000EC0FFD1F108110826D917C916E0D7F1D802F9B2D0E949E15D601ED91FC91EC0FF0
:202BE000FD1F1083802F9B2DDF91CF911F910F91FF90EF90DF90CF90BF900895FC018081C9
:202C000091810E94A11608950F931F93CF93DF93BC018230910510F462E070E0E091330342
:202C2000F091340340E050E0A0E0B0E024C08081918186179707D0F08617970771F48281E7
:202C40009381109729F013969C938E9312972CC0909334038093330327C04115510519F0D3
:202C60008417950718F48D01AC01EF01DF01828193819C01F9013097D1F641155105F9F035
:202C8000CA01861B970B8430910580F48A819B810115110521F0F8019383828304C0909309
:202CA000340380933303FE01329645C0FE01E80FF91F619371930297998388833CC08091F5
:202CC000310390913203892B41F48091C3019091C40190933203809331034091C5015091AF
:202CE000C6014115510541F44DB75EB78091C1019091C201481B590B2091310330913203BA
:202D000024173507B0F4CA01821B930B8617970780F0AB014E5F5F4F8417950750F0420F18
:202D2000531F5093320340933103F9016193719302C0E0E0F0E0CF01DF91CF911F910F91CE
:202D40000895CF93DF939C01009709F48FC0EC0122971B821A8260913303709134036115CE
:202D6000710581F488819981820F931F20913103309132032817390739F5D0933203C0938F
:202D8000310374C0DB0140E050E0AC17BD0708F1BB83AA83FE0121913191E20FF31FAE1779
:202DA000BF0779F48D919C911197280F391F2E5F3F4F3983288312968D919C9113979B8321
:202DC0008A834115510571F4D0933403C09333034DC012968D919C911397AD01009711F0C2
:202DE000DC01D3CFDA011396DC93CE931297FA0121913191E20FF31FCE17DF0769F48881B4
:202E00009981280F391F2E5F3F4FFA01318320838A819B8193838283E0E0F0E0DB01129646
:202E20008D919C911397009719F0BC01FD01F6CFAB014E5F5F4FDB018D919C91840F951F08
:202E400020913103309132032817390779F4309729F4109234031092330302C0138212822B
:202E6000425050405093320340933103DF91CF9108956F927F928F929F92AF92BF92CF924D
:202E8000DF92EF92FF920F931F93CF93DF938C01009729F4CB010E9404168C01BBC08EEF39
:202EA000E82E8FEFF82EE00EF11E4801860E971E8E149F0408F4ACC0D7014D915C911197D1
:202EC00046175707B8F04530510508F4A3C0CA0104978617970708F49DC042505040461BE8
:202EE000570BF401419351936D937C93CF010E94A11690C05B01A41AB50A3801640E751E24
:202F0000A0913303B0913403E0E0F0E0CC24DD2447C0A615B705A9F5CD91DC911197CE01F3
:202F200002968A159B0568F1CE018A199B09029612962C91129713963C91059758F0F40156
:202F400022833383CA19DB09D183C083D7016D937C9309C04E5F5F4F4C0F5D1FF70151830A
:202F60004083C901FC01C114D10431F0D6011396FC93EE9312974EC0F0933403E093330352
:202F800049C08D919C911197E817F90708F4FC016D0112968C91129713969C919C01D90114
:202FA000109709F0B6CF809131039091320386159705E9F4E617F707D0F42091C501309146
:202FC000C6012115310541F42DB73EB78091C1019091C201281B390B82169306C8F4909263
:202FE000320380923103F7017183608313C0CB010E940416EC01009759F0D7014D915C91BC
:20300000B8010E948B02C8010E94A1168E0102C000E010E0C801DF91CF911F910F91FF900D
:20302000EF90DF90CF90BF90AF909F908F907F906F9008955058BB27AA270ED075C166D116
:2030400030F06BD120F031F49F3F11F41EF45BC10EF4E095E7FB51C1E92F77D180F3BA17BF
:20306000620773078407950718F071F49EF58FC10EF4E0950B2EBA2FA02D0B01B901900139
:203080000C01CA01A0011124FF27591B99F0593F50F4503E68F11A16F040A22F232F342FB6
:2030A0004427585FF3CF469537952795A795F0405395C9F77EF41F16BA0B620B730B840BCF
:2030C000BAF09150A1F0FF0FBB1F661F771F881FC2F70EC0BA0F621F731F841F48F48795CC
:2030E00077956795B795F7959E3F08F0B3CF9395880F08F09927EE0F979587950895D9D097
:2031000008F481E008950CD00FC107D140F0FED030F021F45F3F19F0F0C0511139C1F3C098
:2031200014D198F39923C9F35523B1F3951B550BBB27AA2762177307840738F09F5F5F4F76
:20314000220F331F441FAA1FA9F333D00E2E3AF0E0E830D091505040E695001CCAF729D031
:20316000FE2F27D0660F771F881FBB1F261737074807AB07B0E809F0BB0B802DBF01FF2739
:2031800093585F4F2AF09E3F510568F0B6C000C15F3FECF3983EDCF3869577956795B79529
:2031A000F7959F5FC9F7880F911D9695879597F90895E1E0660F771F881FBB1F62177307CC
:2031C0008407BA0720F0621B730B840BBA0BEE1F88F7E095089504D06894B111D9C00895DE
:2031E000BCD088F09F5790F0B92F9927B751A0F0D1F0660F771F881F991F1AF0BA95C9F7D1
:2032000012C0B13081F0C3D0B1E00895C0C0672F782F8827B85F39F0B93FCCF3869577953F
:203220006795B395D9F73EF490958095709561957F4F8F4F9F4F0895E89409C097FB3EF4D3
:2032400090958095709561957F4F8F4F9F4F9923A9F0F92F96E9BB279395F69587957795E6
:203260006795B795F111F8CFFAF4BB0F11F460FF1BC06F5F7F4F8F4F9F4F16C0882311F05C
:2032800096E911C0772321F09EE8872F762F05C0662371F096E8862F70E060E02AF09A9597
:2032A000660F771F881FDAF7880F9695879597F90895990F0008550FAA0BE0E8FEEF1616D6
:2032C0001706E807F907C0F012161306E407F50798F0621B730B840B950B39F40A2661F0AA
:2032E000232B242B252B21F408950A2609F4A140A6958FEF811D811D089597F99F6780E891
:2033000070E060E008959FEF80EC089500240A941616170618060906089500240A9412162A
:203320001306140605060895092E0394000C11F4882352F0BB0F40F4BF2B11F460FF04C0D6
:203340006F5F7F4F8F4F9F4F089557FD9058440F551F59F05F3F71F04795880F97FB991F60
:2033600061F09F3F79F087950895121613061406551FF2CF4695F1DF08C016161706180692
:20338000991FF1CF86957105610508940895E894BB2766277727CB0197F908958ADF08F49E
:2033A0008FEF08950BD0C0CFB1DF28F0B6DF18F0952309F0A2CFA7CF1124EACFC6DFA0F385
:2033C000959FD1F3950F50E0551F629FF001729FBB27F00DB11D639FAA27F00DB11DAA1F96
:2033E000649F6627B00DA11D661F829F2227B00DA11D621F739FB00DA11D621F839FA00DFA
:20340000611D221F749F3327A00D611D231F849F600D211D822F762F6A2F11249F5750409B
:203420008AF0E1F088234AF0EE0FFF1FBB1F661F771F881F91505040A9F79E3F510570F001
:203440005CCFA6CF5F3FECF3983EDCF3869577956795B795F795E7959F5FC1F7FE2B880FBD
:20346000911D9695879597F9089523DF880B990B0895629FD001739FF001829FE00DF11D63
:20348000649FE00DF11D929FF00D839FF00D749FF00D659FF00D9927729FB00DE11DF91F2C
:2034A000639FB00DE11DF91FBD01CF011124089597FB092E07260AD077FD04D02ED006D0EB
:2034C00000201AF4709561957F4F0895F6F7909581959F4F0895A1E21A2EAA1BBB1BFD0141
:2034E0000DC0AA1FBB1FEE1FFF1FA217B307E407F50720F0A21BB30BE40BF50B661F771F42
:20350000881F991F1A9469F760957095809590959B01AC01BD01CF010895AA1BBB1B51E1C9
:2035200007C0AA1FBB1FA617B70710F0A61BB70B881F991F5A95A9F780959095BC01CD0170
:203540000895EE0FFF1F0590F491E02D0994911106C0803219F089508550D0F708959927FA
:203560008827089512E0C2E6D2E004C0FE010E94A31A2296C436D107C9F7F894FFCF546534
:203580006D703A2000436F6D6D616E642072656365697665643A20004C45444F4E00436F50
:2035A0006D6D616E643A204C45444F4E004C45444F464600436F6D6D616E643A204C454494
:2035C0004F4646004C454450574D0050574D0054454D5000434F4C2300436F6D6D616E645D
:2035E0003A20434F4C23007267623A2000723A2000673A2000623A2000556E6B6E6F776EA2
:2036000020636F6D6D616E6400426C7565746F6F746800456E64206F6620636F6D6D616E4E
:203620006400555342006E616E00696E66006F7666002E000006000A00090007000A00809F
:20364000003703000000000000580DC2123E0D1D0D1B0E0A0E000000001D12C212B311E496
:2036600011C4110D1200007267623A2000723A2000673A2000623A2000556E6B6E6F776E77
:20368000FFFFFFFFFFFFFFFFFFFFFFFFFFFFFFFFFFFFFFFFFFFFFFFFFFFFFFFFFFFFFFFF4A
:2036A000FFFFFFFFFFFFFFFFFFFFFFFFFFFFFFFFFFFFFFFFFFFFFFFFFFFFFFFFFFFFFFFF2A
:2036C000FFFFFFFFFFFFFFFFFFFFFFFFFFFFFFFFFFFFFFFFFFFFFFFFFFFFFFFFFFFFFFFF0A
:2036E000FFFFFFFFFFFFFFFFFFFFFFFFFFFFFFFFFFFFFFFFFFFFFFFFFFFFFFFFFFFFFFFFEA
:207E0000112484B714BE81FFE6D085E08093810082E08093C00088E18093C10086E0809306
:207E2000C20080E18093C4008EE0BFD0259A86E020E33CEF91E0309385002093840096BBB7
:207E4000B09BFECF1D9AA8958150A9F7EE24FF24AA24A394B5E0CB2EA1E1BA2EF3E0DF2E93
:207E600098D0813461F495D0082FA5D0023829F1013811F485E001C083E083D07FC082341C
:207E800011F484E103C0853419F485E09CD076C0853579F47ED0E82EFF247BD0082F10E0C8
:207EA000102F00270E291F29000F111F84D0780165C0863521F484E086D080E0DECF84365B
:207EC00009F040C066D065D0082F63D080E0E81680E7F80618F4F701D7BEE895C0E0D1E0AA
:207EE00058D089930C17E1F7F0E0EF16F0E7FF0618F0F701D7BEE8955ED007B600FCFDCFCD
:207F0000A701A0E0B1E02C9130E011968C91119790E0982F8827822B932B1296FA010C016E
:207F2000A7BEE89511244E5F5F4FF1E0A038BF0751F7F701C7BEE89507B600FCFDCFB7BE24
:207F4000E8951CC0843761F424D023D0082F21D032D0F70185917F0114D00150D1F70EC04E
:207F6000853739F428D08EE10CD085E90AD08FE084CF813511F488E018D01DD080E101D0A1
:207F80006FCF982F8091C00085FFFCCF9093C60008958091C00087FFFCCF8091C00084FDC2
:207FA00001C0A8958091C6000895E0E6F0E098E1908380830895EDDF803219F088E0F5DFCA
:207FC000FFCF84E1DECF1F93182FE3DF1150E9F7F2DF1F910895282E80E0E7DFEE27FF27F0
:207FE0000994FFFFFFFFFFFFFFFFFFFFFFFFFFFFFFFFFFFFFFFFFFFFFFFFFFFFFFFF0005FB
:00000001FF
