:100000000C947E030C949B030C949B030C949B0315
:100010000C949B030C949B030C949B030C949B03E8
:100020000C949B030C949B030C949B030C948F08DF
:100030000C949B030C949B030C949B030C949B03C8
:100040000C949B030C949B030C949B030C949B03B8
:100050000C949B0300F8F878C080C070F8F8000892
:10006000F8F88888F8702078C88898180000000090
:10007000F8F8080000000000C07878E0000000F800
:10008000F88888D878000000000000000000000018
:100090000000000000000000000000000000000060
:1000A0000000000000000000000000000000000050
:1000B0000000000000000000000000000000000040
:1000C0000000000000000000000000000000000030
:1000D00000000000000F0F00030301080F0F0008CD
:1000E0000F0F080000000C0C08080F0700000000AC
:1000F0000F0F0808080C080E0B01010F0F08080F5E
:100100000F08080D070000000000000000000000BC
:1001100000000000000000000000000000000000DF
:1001200000000000000000000000000000000000CF
:1001300000000000000000000000000000000000BF
:1001400000000000000000000000000000000000AF
:10015000000000000000000000000000000000009F
:10016000000000000000000000C0F81C04040C0C9B
:1001700080C0602060E08004FCFC0080C0602060E3
:10018000E08020E060206000000000FCFC04040C23
:100190001CF80080E0A0A0E0C020F8202080E0A0B3
:1001A000A0E0C000C06020606020F8202080C06017
:1001B0002060E08020E0602060000000000000007F
:1001C000000000000000000000000000000000002F
:1001D00000000000000000000000008040202020FF
:1001E0002020202020202020202043468484060632
:1001F00001070604060301000707000107060406BD
:1002000003010407040000000000000707040406BF
:1002100003030001070404060200070406030704A1
:10022000040602000706040402000704060307068A
:1002300004060301040704000000000000000000A1
:1002400000000000000000000000000000000000AE
:1002500000000000C02010080482412020E0E0E0FF
:100260004080000000008040202020A0E0E1C1820A
:100270000204081020408000000000000080808000
:10028000808080808080808080808080808080806E
:10029000808080808080808080808080808080805E
:1002A000808080808080808080808080808080804E
:1002B000808080808080808080808080808080803E
:1002C00080808080808080808080800000000000AE
:1002D00000000000FF0000000708101010111111AD
:1002E000080700000000070810101010111108077F
:1002F000000000000000FF000000000000030303F6
:1003000003030303030303030303030303030303BD
:1003100003030303030303030303030303030303AD
:10032000030303030303030303030303030303039D
:10033000030303030303030303030303030303038D
:10034000030303030303030303030300000000008C
:10035000000000007FC080000000000006081020A0
:10036000404040404040404020180600000000004F
:100370000000008040201E0000000000000001FF7F
:10038000980808F8600878E88068180800000001FC
:10039000836F38EDC30108F8800088F80080D848E2
:1003A000C8F80008F8F80818F80000000003030176
:1003B000FFFF01030301FF180818F80080D848C8A0
:1003C000F80008F8F80818F80001FF180818F800F5
:1003D000000000000000010204040810102020208A
:1003E0002020202020202020202020201010100855
:1003F00004020100000000000000000000000001F5
:1004000001010101000C08070300000000000001C9
:1004100001010001010100010101010101010101CE
:1004200001010101010100010101000000000001C2
:1004300001010100000101010001010101010101AF
:10044000010101010100010101010101000101019E
:10045000000000000000000000000000065F5F06D2
:10046000000000070700070700147F7F147F7F1438
:10047000242E6B6B3A1200466630180C6662307A96
:100480004F5D377A4804070300000000001C3E63FC
:100490004100000041633E1C0000082A3E1C1C3E37
:1004A0002A08083E3E0808000080E06000000008BE
:1004B00008080808080000006060000000603018AC
:1004C0000C0603013E7F71594D7F3E40427F7F40C5
:1004D0004000627359496F6600226349497F3600C4
:1004E000181C16537F7F50276745457D39003C7E99
:1004F0004B49793000030371790F0700367F494972
:100500007F3600064F49693F1E0000006666000006
:10051000000080E666000000081C366341000024ED
:10052000242424242400004163361C0800020351C3
:10053000590F06003E7F415D5D1F1E7C7E13137EBA
:100540007C00417F7F49497F361C3E6341416322E5
:10055000417F7F41633E1C417F7F495D4163417F15
:100560007F491D01031C3E63415173727F7F080860
:100570007F7F0000417F7F410000307040417F3F1E
:1005800001417F7F081C7763417F7F414060707F1E
:100590007F0E1C0E7F7F7F7F060C187F7F1C3E63C3
:1005A00041633E1C417F7F49090F061E3F21717F39
:1005B0005E00417F7F09197F66266F4D59733200B7
:1005C00003417F7F4103007F7F40407F7F001F3FCB
:1005D00060603F1F007F7F3018307F7F43673C188B
:1005E0003C6743074F78784F0700476371594D6761
:1005F00073007F7F414100000103060C183060004A
:1006000041417F7F0000080C0603060C08808080B3
:100610008080808000000307040000207454543C54
:100620007840417F3F48487830387C44446C28000B
:10063000307848493F7F40387C54545C1800487EED
:100640007F4903020038BCA4A4FC7800417F7F08E6
:10065000047C7800447D7D40000060E08080FD7D6A
:1006600000417F7F10386C4400417F7F400000785C
:100670007C1C381C7C787C7C04047C7800387C44AE
:10068000447C380000FCFCA4243C18183C24A4F84A
:10069000FC84447C784C041C18485C54547424003A
:1006A00000043E7F4424003C7C40403C7C401C3C99
:1006B00060603C1C003C7C7038707C3C446C3810A2
:1006C000386C443CBCA0A0FC7C004C64745C4C6462
:1006D0000008083E774141000000007777000041A4
:1006E00041773E08080002030103020301FF8181F4
:1006F000818181FF0E9F91B1FB4A000011241FBE32
:10070000CFE5D8E0DEBFCDBF12E0A0E6B0E0E6E680
:10071000F0E202C005900D92A031B107D9F712E0C6
:10072000A0E1B2E001C01D92A331B107E1F70E9440
:10073000B7080C9431100C94000080E000008F5F2B
:100740008031E1F7089587B38E6387BBC1988FEF3F
:1007500081BB12BA089587B38E6387BBC19811BA63
:100760008FEF82BB08951F93182F0E94A3031130AF
:1007700019F4C598C49A02C0C59AC49880E00000D4
:100780008F5F8031E1F71F9108950E94AB03C398FA
:10079000C29AC19A80E000008F5F8031E1F706C005
:1007A000C19A80E000008F5F8031E1F7C19887999E
:1007B000F7CF08951F93182F0E94C5030E94A3032B
:1007C000C398C298125C12BBC19A80E000008F5F90
:1007D0008031E1F7C1981F9108951F93182F0E944F
:1007E000C5030E94A303C398C298105C12BBC19AB0
:1007F00080E000008F5F8031E1F7C1981F9108957C
:100800001F93182F0E94C5030E94A303C398C29888
:10081000185412BBC19A80E000008F5F8031E1F76D
:10082000C1981F9108951F93182F0E94C5030E941D
:10083000A303C398C29880E00E94B303105412BB74
:10084000C19A80E000008F5F8031E1F7C19881E0BC
:100850000E94B303C19A12BB80E000008F5F803119
:10086000E1F7C1981F9108951F93182F0E94C503A7
:100870000E94A303C39AC29812BBC19A80E00000F1
:100880008F5F8031E1F7C19880E000008F5F803199
:10089000E1F71F9108950E94C5030E94AB03C39A1C
:1008A000C29AC19A80E000008F5F8031E1F7C19861
:1008B00080E000008F5F8031E1F7C19A80B3C1987A
:1008C00090E000009F5F9031E1F7089580E00E9482
:1008D000B30381E00E94DA0380E00E94ED0380E030
:1008E0000E94000480E00E94130481E00E94B30390
:1008F00081E00E94DA0380E00E94ED0380E00E9424
:10090000000480E00E9413040895FF920F931F9348
:10091000F82E062F162F1295169516951370812F07
:100920000E94B303812F90E026E0880F991F2A953B
:10093000E1F7081B802F0E94ED038F2D0E94000419
:100940001F910F91FF9008950F931F9300E0802F48
:1009500060E00E94850410E080E00E9434041F5F84
:100960001034D1F70F5F083091F700E0802F60E47A
:100970000E94850410E080E00E9434041F5F103460
:10098000D1F70F5F083091F71F910F910895DF9213
:10099000EF92FF920F931F93CF93DF93D82E062FE2
:1009A000142F862F8A53863090F58D2D0E94850452
:1009B00087E0189F7001112480E29FEFE80EF91E76
:1009C00010E0C0E4D0E0C01BD10908C0EE0DFF1D4F
:1009D000EC5AFB4F84910E9434041F5FE12FF0E03A
:1009E000EC17FD079CF38D2D60E40E94850410E454
:1009F000101B0AC0F701E10FF11DEC5AFB4FE49107
:100A00008E2F0E9434041F5F1730A0F315C08D2D68
:100A10000E94850487E0189FC0011124EC01CC5886
:100A2000DC4F8C0105581C4FFE0184910E94340458
:100A30002196C017D107C1F7DF91CF911F910F9178
:100A4000FF90EF90DF900895FF920F931F93CF9345
:100A5000DF93F82EEA01162F00E00AC017FF02C04C
:100A6000F39410E08F2D612F0E94C704185F0F5F71
:100A7000FE01E00FF11D4081442381F7DF91CF910A
:100A80001F910F91FF900895CF92DF92EF92FF9206
:100A90000F931F93CF93DF936C0100E0EE24FF24AC
:100AA000802F60E00E948504E601CE0DDF1D10E07E
:100AB000FE0184910E9434041F5F21961034C1F717
:100AC000802F60E40E948504F701E10FF11DEC0D19
:100AD000FD1DE4918E2F0E9434041F5F1038A1F792
:100AE0000F5F80E890E0E80EF91E0830C9F6DF914C
:100AF000CF911F910F91FF90EF90DF90CF900895CD
:100B0000FF920F931F93DF93CF930F92CDB7DEB772
:100B1000F82E1FE3161B012F069506950695802FCC
:100B20006F2D0E9485040E944B04898329811770D0
:100B300081E090E002C0880F991F1A95E2F7282BF8
:100B40002983802F6F2D0E94850489810E9434049F
:100B50000F90CF91DF911F910F91FF900895FF9219
:100B60000F931F93DF93CF930F92CDB7DEB7F82E7D
:100B70001FE3161B012F069506950695802F6F2DF6
:100B80000E9485040E944B0489832981177081E0AB
:100B900090E002C0880F991F1A95E2F78095822392
:100BA0008983802F6F2D0E94850489810E943404DF
:100BB0000F90CF91DF911F910F91FF9008956F9249
:100BC0007F928F929F92AF92BF92CF92DF92EF92DD
:100BD000FF920F931F93CF93DF93082F162FE42ECE
:100BE000F22E242F30E0281B310937FF03C0309547
:100BF00021953F4F8F2D90E0811B910997FF03C0F6
:100C0000909581959F4F281739070CF440C0E01646
:100C100030F48E2DE02E082F8F2DF12E182F4E2D13
:100C200050E0C02FD0E02F2D30E0812F90E039012F
:100C3000681A790A4A018C1A9D0A5C01A21AB30A41
:100C40006E01C41AD50A20C0202F30E01F1558F0BD
:100C50002C1B3D0B2A9DC0012B9D900D3A9D900DA4
:100C60001124B6010AC02C1B3D0B269DC001279DF7
:100C7000900D369D900D1124B4010E94E70F610F75
:100C8000802F0E9480050F5FE016F0F640C0F1163D
:100C900030F48E2DE02E082F8F2DF12E182F8E2D53
:100CA00090E0202F30E04F2D50E0C12FD0E03C01EC
:100CB000621A730A4A018C1A9D0A5901A81AB90AC4
:100CC0006E01C41AD50A21C0212F30E00E1558F04C
:100CD0002C1B3D0B2A9DC0012B9D900D3A9D900D24
:100CE0001124B6010AC02C1B3D0B269DC001279D77
:100CF000900D369D900D1124B4010E94E70F600FF6
:100D0000862F612F0E9480051F5FF116E8F6DF91A4
:100D1000CF911F910F91FF90EF90DF90CF90BF90F8
:100D2000AF909F908F907F906F9008956F927F9279
:100D30008F929F92AF92BF92CF92DF92EF92FF92EB
:100D40000F931F93CF93DF93082F162FE42EF22ECD
:100D5000282F30E0241B310937FF03C0309521953F
:100D60003F4F812F90E08F19910997FF03C0909515
:100D700081959F4F281739070CF440C0E01630F4D6
:100D80008E2DE02E082F8F2DF12E182FC02FD0E0A2
:100D90004E2D50E0212F30E08F2D90E03C01621A63
:100DA000730A4A018C1A9D0A5901A81AB90A6E01E0
:100DB000C41AD50A20C0202F30E01F1558F02C1B74
:100DC0003D0B2A9DC0012B9D900D3A9D900D112445
:100DD000B6010AC02C1B3D0B269DC001279D900D1E
:100DE000369D900D1124B4010E94E70F610F802FF2
:100DF0000E94AF050F5FE016F0F640C0F11630F428
:100E00008E2DE02E082F8F2DF12E182F402F50E021
:100E10002E2D30E0C12FD0E08F2D90E03901641AE3
:100E2000750A4C018C1A9D0A5A01A21AB30A6E0166
:100E3000C81AD90A21C0212F30E00E1558F02C1BFA
:100E40003D0B2A9DC0012B9D900D3A9D900D1124C4
:100E5000B6010AC02C1B3D0B269DC001279D900D9D
:100E6000369D900D1124B4010E94E70F600F862F6C
:100E7000612F0E94AF051F5FF116E8F6DF91CF9159
:100E80001F910F91FF90EF90DF90CF90BF90AF90A8
:100E90009F908F907F906F900895DF92EF92FF92D6
:100EA0000F931F93D82E162F7A01CA0168EE73E0B4
:100EB0000E94D30F462F405D8D2D612F0E94C704E5
:100EC000C70168EE73E00E94D30F082FF92E185F58
:100ED00064E670E00E94E70F462F405D8D2D612F84
:100EE0000E94C704802F9F2D64E670E00E94E70FE8
:100EF000082FF92E185F6AE070E00E94E70F462F76
:100F0000405D8D2D612F0E94C704185F802F9F2D9B
:100F10006AE070E00E94E70F482F405D8D2D612F41
:100F20000E94C70480E090E01F910F91FF90EF9026
:100F3000DF9008958EE78ABBDC98DD9ADE980895ED
:100F4000D998DA980895D99ADA9A0895D998DA9AB8
:100F50000895D99ADA980895C89902C0C89BFECF1F
:100F6000C899FECF1DBC1CBC81E08EBDC89BFECFC6
:100F70001EBC6CB57DB5660F771F80E090E00E94C7
:100F8000650D9B01AC0160E074E284EF9AE40E947D
:100F9000350C0E945F0ACB010895CF92DF92EF9249
:100FA000FF920F931F93D998DA9840EDE42E47E013
:100FB000F42EC7010197F1F70E94AC076C01C7013D
:100FC0000197F1F70E94AC078C01C7010197F1F777
:100FD0000E94AC070C0D1D1D800F911F63E070E097
:100FE0000E94D30FCB011F910F91FF90EF90DF90E4
:100FF000CF900895AF92BF92CF92DF92EF92FF927F
:101000000F931F93D99ADA9A50EDC52E57E0D52E3B
:10101000C6010197F1F70E94AC075C01C601019778
:10102000F1F70E94AC077C01C6010197F1F70E941D
:10103000AC07EA0CFB1CE80EF91E00E010E0C8014A
:10104000B7010E94650D20E030E040E250E40E94CC
:10105000350C0E945F0ACB011F910F91FF90EF901A
:10106000DF90CF90BF90AF900895CF92DF92EF9234
:10107000FF920F931F93D998DA9A60EDE62E67E0FE
:10108000F62EC7010197F1F70E94AC076C01C7016A
:101090000197F1F70E94AC078C01C7010197F1F7A6
:1010A0000E94AC070C0D1D1D800F911F63E070E0C6
:1010B0000E94D30FCB011F910F91FF90EF90DF9013
:1010C000CF900895CF92DF92EF92FF920F931F93EC
:1010D000D99ADA9870EDE72E77E0F72EC7010197DD
:1010E000F1F70E94AC076C01C7010197F1F70E946C
:1010F000AC078C01C7010197F1F70E94AC070C0DFA
:101100001D1D800F911F63E070E00E94D30FCB0183
:101110001F910F91FF90EF90DF90CF9008951F9255
:101120000F920FB60F9211248F939F938CE982BF79
:10113000809110028F5F80931002853021F485B377
:1011400092E0892785BB9F918F910F900FBE0F90E2
:101150001F9018959091110280911202981731F00A
:101160000E94A404809111028093120208952F928C
:101170003F924F925F926F927F928F929F92AF9227
:10118000BF92CF92DF92EF92FF920F931F93CF9374
:10119000DF930E9466040E94A40484E590E00E940C
:1011A000440580E395E728EC30E0F9013197F1F749
:1011B0000197D9F70E94A4040E949A0785E089BF8D
:1011C0008CE982BF83E085BB8EEF84BB7894772463
:1011D000992418EC412E512CB9E02B2EA2E06A2E56
:1011E000F3E03F2E88E893E1F2013197F1F70197A0
:1011F000D9F7DB9A0E94CD076C010E94FA077C01A7
:101200000E9435085C010E946208DB988553984073
:1012100008F436C1CA14DB0430F4C701CE14DF046D
:1012200038F4C60105C0C501EA14FB0408F4C7017F
:101230006AE070E00E94D30F8B01C6010E94D30FB9
:10124000EB0188246A30710511F4882483940B3FE4
:10125000110560F0882051F081E0809311020E9416
:10126000AA0882E060E040E650E0FAC0C701B80199
:101270000E94D30FFB01C501B8010E94D30F9B014F
:10128000A0E06E177F0708F4A1E060E070E02A306C
:10129000310511F461E070E080E0CF30D10508F055
:1012A00081E08A2390E086239723892B49F060927E
:1012B00011020E94AA0882E060E04FE650E0D0C030
:1012C000B0E0E217F30708F4B1E080E02F30310519
:1012D00008F081E08B2390E040E050E0CA30D10577
:1012E00011F441E050E084239523892B49F030929A
:1012F00011020E94AA0882E065E04FE750E0B0C00A
:1013000040E0EA30F10509F441E080E02C173D07A8
:1013100008F481E0842390E086239723892B51F001
:1013200084E0809311020E94AA0882E06AE04DE8FE
:1013300050E096C080E0CE17DF0708F481E0A823D4
:101340008A2F90E020E030E051E5C516D10410F07E
:1013500021E030E082239323892B51F085E08093B4
:1013600011020E94AA0882E060E04AE950E078C0D9
:1013700020E030E03B9711F421E030E080E090E0A5
:101380000639110510F481E090E028233923B821B3
:101390008B2F90E028233923232B51F086E0809374
:1013A00011020E94AA0882E060E049EA50E058C0B9
:1013B00020E030E058EEA51653E0B50610F421E029
:1013C00030E080E090E058EEC51653E0D50610F40A
:1013D00081E090E02823392380E090E00335110577
:1013E00010F081E090E0282339232623372384223C
:1013F000882D90E028233923232B19F187E080934F
:1014000011020E94AA0880E065E04AEB50E00E94C9
:10141000240588EE93E0F2013197F1F70197D9F7AF
:10142000772029F49920C1F5772473941FC022E016
:101430007216C9F482E061E049EC50E00E94240594
:101440002BC058E0509311020E94AA0880E060E08F
:1014500048ED50E00E94240582E06AE042EE50E050
:101460000E942405992481E07816B1F463BE84E0DB
:1014700061E040EF50E00E9424059924939412C04B
:10148000209211020E94AA0880E06AE04EEF50E02C
:101490000E942405992402C0992021F422E07216AA
:1014A00009F4772498999ECE51E0751609F09ACEEA
:1014B00013BE35BA0E94A404E2E07E2E93CEEF92D2
:1014C000FF920F931F937B018C0120E030E040E0FE
:1014D0005FE40E94E10C88238CF0C801B70120E092
:1014E00030E040E05FE40E94D70B0E94110D9B01A9
:1014F000AC01205030404040504806C0C801B70100
:101500000E94110D9B01AC01B901CA011F910F91FD
:10151000FF90EF900895A0E0B0E0E1E9FAE00C94CC
:10152000FA0FDC012B01FA019C91923008F439C1C9
:10153000EB018881823008F433C1943069F484303F
:1015400009F02FC111969C9111978981981709F480
:1015500028C1A8E0B1E025C1843009F421C182305E
:10156000A9F4923009F01DC19A01AD0188E0EA01A9
:101570000990AE01E90109929E018150C1F7E20193
:10158000898111969C918923818308C1923009F445
:1015900007C112962D903C901397EB018A819B8195
:1015A0001496AD90BD90CD90DC901797EC80FD80A7
:1015B0000E811F819101281B390BB90137FF04C02F
:1015C00066277727621B730B603271050CF061C0D0
:1015D000121613066CF537014801062E04C09694C6
:1015E0008794779467940A94D2F721E030E040E042
:1015F00050E004C0220F331F441F551F6A95D2F7D5
:1016000021503040404050402E213F214023512363
:10161000211531054105510521F021E030E040E080
:1016200050E079018A01E628F728082919293CC0E9
:10163000232BD1F1260E371E35014601062E04C09C
:1016400096948794779467940A94D2F721E030E0D7
:1016500040E050E004C0220F331F441F551F6A951D
:10166000D2F721503040404050402A213B214C21AC
:101670005D21211531054105510521F021E030E0C2
:1016800040E050E059016A01A628B728C828D928A7
:101690000BC0821593052CF01C01AA24BB24650104
:1016A00003C0EE24FF24870111969C91D20111966C
:1016B0008C91981709F445C0992339F0A801970136
:1016C0002A193B094C095D0906C0A60195012E198E
:1016D0003F09400B510B57FD08C011823382228213
:1016E00024833583468357831DC081E08183338201
:1016F000228288279927DC01821B930BA40BB50B50
:1017000084839583A683B7830DC0220F331F441FA4
:10171000551F2483358346835783828193810197A4
:10172000938382832481358146815781DA01C901FF
:101730000197A109B1098F5F9F4FAF4FBF4328F3B6
:101740000BC0918333822282EA0CFB1C0C1D1D1DF1
:10175000E482F5820683178383E0808324813581C8
:101760004681578157FF1AC0C901AA2797FDA09546
:10177000BA2F81709070A070B070569547953795CC
:101780002795822B932BA42BB52B84839583A6833B
:10179000B78382819381019693838283DF0101C0A5
:1017A000D201CD01CDB7DEB7E2E10C941610A0E274
:1017B000B0E0EDEDFBE00C94061069837A838B8337
:1017C0009C832D833E834F835887E9E0EE2EF12CD6
:1017D000EC0EFD1ECE010196B7010E94020F8E0194
:1017E0000F5E1F4FCE010596B8010E94020F8A8935
:1017F00091E089278A8BC701B801AE01475E5F4F30
:101800000E948B0A0E942D0EA096E6E00C942210F6
:10181000A0E2B0E0EEE0FCE00C94061069837A836D
:101820008B839C832D833E834F835887F9E0EF2E73
:10183000F12CEC0EFD1ECE010196B7010E94020FA5
:101840008E010F5E1F4FCE010596B8010E94020F58
:10185000C701B801AE01475E5F4F0E948B0A0E942C
:101860002D0EA096E6E00C942210A8E1B0E0EBE388
:10187000FCE00C94021069837A838B839C832D8314
:101880003E834F835887B9E0EB2EF12CEC0EFD1E02
:10189000CE010196B7010E94020F8E010F5E1F4F0D
:1018A000CE010596B8010E94020F2985223008F466
:1018B0007EC03989323010F4B8017CC08A859A899B
:1018C00089278A87243011F0223031F4231709F058
:1018D0006EC068E071E06EC0343039F41D861E863B
:1018E0001F86188A1C861B8604C0323021F484E0CF
:1018F0008987B7015FC02B853C858B899C89281B14
:10190000390B3C872B87ED84FE840F851889AD88C1
:10191000BE88CF88D88CEA14FB040C051D0540F462
:10192000EE0CFF1C001F111F215030403C872B87FD
:1019300020E030E040E050E080E090E0A0E0B0E463
:1019400060E070E0EA14FB040C051D0540F0282B54
:10195000392B4A2B5B2BEA18FB080C091D09B6959D
:10196000A79597958795EE0CFF1C001F111F6F5FC1
:101970007F4F6F31710531F7DA01C9018F779070B0
:10198000A070B07080349105A105B10561F427FD08
:101990000AC0E114F1040105110529F0205C3F4F54
:1019A0004F4F5F4F20782D873E874F87588BBE0162
:1019B000675F7F4FCB010E942D0E6896EAE00C9482
:1019C0001E10A8E1B0E0E7EEFCE00C94061069837D
:1019D0007A838B839C832D833E834F83588789E052
:1019E000E82EF12CEC0EFD1ECE010196B7010E94EF
:1019F000020F8E010F5E1F4FCE010596B8010E94A7
:101A0000020F8985823040F08989823028F0C70131
:101A1000B8010E947A0F01C08FEF6896E6E00C943F
:101A20002210ACE0B0E0E7E1FDE00C940A1069831D
:101A30007A838B839C83CE010196BE016B5F7F4FBF
:101A40000E94020F8D81823061F1823050F184302A
:101A500021F48E81882351F12EC02F81388537FDE6
:101A600020C06E812F3131051CF06623F9F023C0B0
:101A70008EE190E0821B930B29853A854B855C852E
:101A800004C056954795379527958A95D2F76623D2
:101A9000B1F050954095309521953F4F4F4F5F4F96
:101AA0000EC020E030E040E050E009C02FEF3FEFF3
:101AB0004FEF5FE704C020E030E040E050E8B901BC
:101AC000CA012C96E2E00C942610A8E0B0E0EBE608
:101AD000FDE00C9402107B018C01611571058105FC
:101AE000910519F482E0898360C083E089838EE1E7
:101AF000C82ED12CDC82CB82ED82FE820F83188728
:101B0000C801B7010E94DE0DFC013197F7FF3BC011
:101B1000222733272E1B3F0B57016801022E04C0DA
:101B2000D694C794B794A7940A94D2F740E050E0B3
:101B300060E070E081E090E0A0E0B0E004C0880FD9
:101B4000991FAA1FBB1F2A95D2F70197A109B109B6
:101B50008E219F21A023B1230097A105B10521F07B
:101B600041E050E060E070E04A295B296C297D2962
:101B70004D835E836F8378878EE190E08E1B9F0B91
:101B80009C838B8312C0309781F00E2E04C0EE0C24
:101B9000FF1C001F111F0A94D2F7ED82FE820F83F3
:101BA0001887CE1ADF0ADC82CB821A82CE01019618
:101BB0000E942D0E2896EAE00C941E10EF92FF92E0
:101BC0000F931F937B018C0180E0E81680E0F806FC
:101BD00081E0080780E0180788F48FEFE816F10429
:101BE0000105110531F028F088E090E0A0E0B0E0B8
:101BF00017C080E090E0A0E0B0E012C080E0E816FE
:101C000080E0F80680E0080781E0180728F088E106
:101C100090E0A0E0B0E004C080E190E0A0E0B0E09F
:101C200020E230E040E050E0281B390B4A0B5B0B10
:101C300004C016950795F794E7948A95D2F7F701B3
:101C4000E05FFE4F8081281B310941095109C9011C
:101C50001F910F91FF90EF900895DF92EF92FF9206
:101C60000F931F93FC01E480F58006811781D180DA
:101C70008081823048F480E090E0A0E1B0E0E82A82
:101C8000F92A0A2B1B2BA5C0843009F49FC082308F
:101C900021F4EE24FF24870105C0E114F1040105BD
:101CA000110519F4E0E0F0E096C0628173819FEFC6
:101CB000623879070CF05BC022E83FEF261B370B38
:101CC0002A3131052CF020E030E040E050E02AC01D
:101CD000B801A701022E04C07695679557954795E0
:101CE0000A94D2F781E090E0A0E0B0E004C0880F51
:101CF000991FAA1FBB1F2A95D2F70197A109B10905
:101D00008E219F21A023B1230097A105B10521F0C9
:101D100081E090E0A0E0B0E09A01AB01282B392BE4
:101D20004A2B5B2BDA01C9018F779070A070B070DD
:101D300080349105A105B10539F427FF09C0205C65
:101D40003F4F4F4F5F4F04C0215C3F4F4F4F5F4F9E
:101D5000E0E0F0E02030A0E03A07A0E04A07A0E48D
:101D60005A0710F0E1E0F0E079018A0127C06038FD
:101D7000710564F5FB01E158FF4FD801C7018F776A
:101D80009070A070B07080349105A105B10539F450
:101D9000E7FE0DC080E490E0A0E0B0E004C08FE377
:101DA00090E0A0E0B0E0E80EF91E0A1F1B1F17FF2D
:101DB00005C016950795F794E794319687E0169538
:101DC0000795F794E7948A95D1F705C0EE24FF2490
:101DD0008701EFEFF0E06E2F679566276795902FEC
:101DE0009F77D794DD24D7948E2F8695492F462B45
:101DF000582F5D29B701CA011F910F91FF90EF90F5
:101E0000DF900895FC01DB01408151812281622F26
:101E10006F7770E0221F2227221F9381892F880F5E
:101E2000822B282F30E0991F9927991F11969C9398
:101E3000119721153105A9F5411551056105710568
:101E400011F482E037C082E89FEF13969C938E9343
:101E500012979A01AB0167E0220F331F441F551FF1
:101E60006A95D1F783E08C930DC0220F331F441F76
:101E7000551F12968D919C911397019713969C93E1
:101E80008E931297203080E0380780E0480780E486
:101E9000580758F314962D933D934D935C931797E1
:101EA00008952F3F310579F44115510561057105FC
:101EB00019F484E08C93089564FF03C081E08C934F
:101EC00012C01C9210C02F57304013963C932E9393
:101ED000129783E08C9387E0440F551F661F771F8E
:101EE0008A95D1F7706414964D935D936D937C93AE
:101EF000179708951F93DC01FB019C91923008F421
:101F000047C08081823008F443C0943051F4119668
:101F10001C91843099F58181682F70E0611B7109F3
:101F20003FC0843021F0923031F48230B9F18181A8
:101F3000882389F12DC011961C9111978230F1F000
:101F400081811817D9F412962D913C9113978281B3
:101F500093818217930794F028173907BCF01496E1
:101F60008D919D910D90BC91A02D2481358146814C
:101F70005781281739074A075B0718F4112341F0E6
:101F80000AC082179307A407B50740F4112319F07C
:101F900061E070E005C06FEF7FEF02C060E070E0CD
:101FA000CB011F910895AA1BBB1B51E107C0AA1FBB
:101FB000BB1FA617B70710F0A61BB70B881F991FEA
:101FC0005A95A9F780959095BC01CD01089597FB8E
:101FD000092E07260AD077FD04D0E5DF06D00020C1
:101FE0001AF4709561957F4F0895F6F79095819555
:101FF0009F4F08952F923F924F925F926F927F92E0
:102000008F929F92AF92BF92CF92DF92EF92FF9208
:102010000F931F93CF93DF93CDB7DEB7CA1BDB0BB4
:102020000FB6F894DEBF0FBECDBF09942A88398859
:1020300048885F846E847D848C849B84AA84B98460
:10204000C884DF80EE80FD800C811B81AA81B9816C
:10205000CE0FD11D0FB6F894DEBF0FBECDBFED0180
:062060000895F894FFCF83
:10206600436F6C6F7220697320576869746500430B
:102076006F6C6F722069732059656C6C6F770043C3
:102086006F6C6F7220697320426C756500436F6CCC
:102096006F722069732052656400436F6C6F722003
:1020A600697320477265656E00436F6C6F722069B5
:1020B6007320507572706C652000436F6C6F7220D0
:1020C600697320426C61636B002042757A7A65728F
:1020D600206973204F4646004F6F6F707070212144
:1020E6002100556E6B6E6F776E20636F6C6F72009A
:1020F6002042757A7A6572206973204F4E004E6FC2
:10210600204F626A65637400000000000000000052
:102116000001020203030303040404040404040488
:102126000505050505050505050505050505050559
:102136000606060606060606060606060606060639
:102146000606060606060606060606060606060629
:102156000707070707070707070707070707070709
:1021660007070707070707070707070707070707F9
:1021760007070707070707070707070707070707E9
:1021860007070707070707070707070707070707D9
:1021960008080808080808080808080808080808B9
:1021A60008080808080808080808080808080808A9
:1021B6000808080808080808080808080808080899
:1021C6000808080808080808080808080808080889
:1021D6000808080808080808080808080808080879
:1021E6000808080808080808080808080808080869
:1021F6000808080808080808080808080808080859
:102206000808080808080808080808080808080848
:00000001FF
